{
  "contractName": "Crowdfunding",
  "abi": [
    {
      "inputs": [],
      "stateMutability": "nonpayable",
      "type": "constructor"
    },
    {
      "inputs": [
        {
          "internalType": "address payable",
          "name": "_owner",
          "type": "address"
        },
        {
          "internalType": "string",
          "name": "_name",
          "type": "string"
        },
        {
          "internalType": "string",
          "name": "_description",
          "type": "string"
        },
        {
          "internalType": "string",
          "name": "_link",
          "type": "string"
        },
        {
          "internalType": "uint256",
          "name": "_goal",
          "type": "uint256"
        },
        {
          "internalType": "string",
          "name": "_imageLink",
          "type": "string"
        },
        {
          "internalType": "string",
          "name": "_startDate",
          "type": "string"
        },
        {
          "internalType": "string",
          "name": "_endDate",
          "type": "string"
        },
        {
          "internalType": "string",
          "name": "_tags",
          "type": "string"
        }
      ],
      "name": "CreateNewCampaign",
      "outputs": [],
      "stateMutability": "nonpayable",
      "type": "function"
    },
    {
      "inputs": [
        {
          "internalType": "uint24",
          "name": "_campaignID",
          "type": "uint24"
        },
        {
          "internalType": "address payable",
          "name": "_contributor",
          "type": "address"
        },
        {
          "internalType": "string",
          "name": "_date",
          "type": "string"
        },
        {
          "internalType": "uint256",
          "name": "_amount",
          "type": "uint256"
        }
      ],
      "name": "ContributeToCampaign",
      "outputs": [],
      "stateMutability": "nonpayable",
      "type": "function"
    },
    {
      "inputs": [
        {
          "internalType": "uint24",
          "name": "_campaignID",
          "type": "uint24"
        }
      ],
      "name": "CloseCampaign",
      "outputs": [],
      "stateMutability": "nonpayable",
      "type": "function"
    },
    {
      "inputs": [],
      "name": "GetNumberOfCampaigns",
      "outputs": [
        {
          "internalType": "uint256",
          "name": "",
          "type": "uint256"
        }
      ],
      "stateMutability": "view",
      "type": "function",
      "constant": true
    },
    {
      "inputs": [
        {
          "internalType": "uint24",
          "name": "_campaignID",
          "type": "uint24"
        }
      ],
      "name": "GetCampaignOwner",
      "outputs": [
        {
          "internalType": "address",
          "name": "",
          "type": "address"
        }
      ],
      "stateMutability": "view",
      "type": "function",
      "constant": true
    },
    {
      "inputs": [
        {
          "internalType": "uint24",
          "name": "_campaignID",
          "type": "uint24"
        }
      ],
      "name": "GetCampaignID",
      "outputs": [
        {
          "internalType": "uint24",
          "name": "",
          "type": "uint24"
        }
      ],
      "stateMutability": "view",
      "type": "function",
      "constant": true
    },
    {
      "inputs": [
        {
          "internalType": "uint24",
          "name": "_campaignID",
          "type": "uint24"
        }
      ],
      "name": "GetCampaignImageLink",
      "outputs": [
        {
          "internalType": "string",
          "name": "",
          "type": "string"
        }
      ],
      "stateMutability": "view",
      "type": "function",
      "constant": true
    },
    {
      "inputs": [
        {
          "internalType": "uint24",
          "name": "_campaignID",
          "type": "uint24"
        }
      ],
      "name": "GetCampaignName",
      "outputs": [
        {
          "internalType": "string",
          "name": "",
          "type": "string"
        }
      ],
      "stateMutability": "view",
      "type": "function",
      "constant": true
    },
    {
      "inputs": [
        {
          "internalType": "uint24",
          "name": "_campaignID",
          "type": "uint24"
        }
      ],
      "name": "GetCampaignDescription",
      "outputs": [
        {
          "internalType": "string",
          "name": "",
          "type": "string"
        }
      ],
      "stateMutability": "view",
      "type": "function",
      "constant": true
    },
    {
      "inputs": [
        {
          "internalType": "uint24",
          "name": "_campaignID",
          "type": "uint24"
        },
        {
          "internalType": "string",
          "name": "_description",
          "type": "string"
        }
      ],
      "name": "SetCampaignDescription",
      "outputs": [],
      "stateMutability": "nonpayable",
      "type": "function"
    },
    {
      "inputs": [
        {
          "internalType": "uint24",
          "name": "_campaignID",
          "type": "uint24"
        }
      ],
      "name": "GetCampaignLink",
      "outputs": [
        {
          "internalType": "string",
          "name": "",
          "type": "string"
        }
      ],
      "stateMutability": "view",
      "type": "function",
      "constant": true
    },
    {
      "inputs": [
        {
          "internalType": "uint24",
          "name": "_campaignID",
          "type": "uint24"
        }
      ],
      "name": "GetCampaignStartDate",
      "outputs": [
        {
          "internalType": "string",
          "name": "",
          "type": "string"
        }
      ],
      "stateMutability": "view",
      "type": "function",
      "constant": true
    },
    {
      "inputs": [
        {
          "internalType": "uint24",
          "name": "_campaignID",
          "type": "uint24"
        }
      ],
      "name": "GetCampaignEndDate",
      "outputs": [
        {
          "internalType": "string",
          "name": "",
          "type": "string"
        }
      ],
      "stateMutability": "view",
      "type": "function",
      "constant": true
    },
    {
      "inputs": [
        {
          "internalType": "uint24",
          "name": "_campaignID",
          "type": "uint24"
        }
      ],
      "name": "GetCampaignTags",
      "outputs": [
        {
          "internalType": "string",
          "name": "",
          "type": "string"
        }
      ],
      "stateMutability": "view",
      "type": "function",
      "constant": true
    },
    {
      "inputs": [
        {
          "internalType": "uint24",
          "name": "_campaignID",
          "type": "uint24"
        }
      ],
      "name": "GetCampaignStatus",
      "outputs": [
        {
          "internalType": "enum Crowdfunding.CampaignStatus",
          "name": "",
          "type": "uint8"
        }
      ],
      "stateMutability": "view",
      "type": "function",
      "constant": true
    },
    {
      "inputs": [
        {
          "internalType": "uint24",
          "name": "_campaignID",
          "type": "uint24"
        }
      ],
      "name": "GetCampaignGoal",
      "outputs": [
        {
          "internalType": "uint256",
          "name": "",
          "type": "uint256"
        }
      ],
      "stateMutability": "view",
      "type": "function",
      "constant": true
    },
    {
      "inputs": [
        {
          "internalType": "uint24",
          "name": "_campaignID",
          "type": "uint24"
        }
      ],
      "name": "GetCampaignMoneyCollected",
      "outputs": [
        {
          "internalType": "uint256",
          "name": "",
          "type": "uint256"
        }
      ],
      "stateMutability": "view",
      "type": "function",
      "constant": true
    },
    {
      "inputs": [
        {
          "internalType": "uint24",
          "name": "_campaignID",
          "type": "uint24"
        }
      ],
      "name": "GetCampaignTotalContributors",
      "outputs": [
        {
          "internalType": "uint24",
          "name": "",
          "type": "uint24"
        }
      ],
      "stateMutability": "view",
      "type": "function",
      "constant": true
    },
    {
      "inputs": [
        {
          "internalType": "uint24",
          "name": "_campaignID",
          "type": "uint24"
        },
        {
          "internalType": "uint24",
          "name": "_index",
          "type": "uint24"
        }
      ],
      "name": "GetCampaignContributor",
      "outputs": [
        {
          "internalType": "address",
          "name": "",
          "type": "address"
        }
      ],
      "stateMutability": "view",
      "type": "function",
      "constant": true
    },
    {
      "inputs": [
        {
          "internalType": "uint24",
          "name": "_campaignID",
          "type": "uint24"
        },
        {
          "internalType": "uint24",
          "name": "_index",
          "type": "uint24"
        }
      ],
      "name": "GetCampaignContributionDate",
      "outputs": [
        {
          "internalType": "string",
          "name": "",
          "type": "string"
        }
      ],
      "stateMutability": "view",
      "type": "function",
      "constant": true
    },
    {
      "inputs": [
        {
          "internalType": "uint24",
          "name": "_campaignID",
          "type": "uint24"
        },
        {
          "internalType": "uint24",
          "name": "_index",
          "type": "uint24"
        }
      ],
      "name": "GetCampaignContributionAmount",
      "outputs": [
        {
          "internalType": "uint256",
          "name": "",
          "type": "uint256"
        }
      ],
      "stateMutability": "view",
      "type": "function",
      "constant": true
    }
  ],
  "bytecode": "0x60806040523480156200001157600080fd5b506200018073ad6d6717a14a1f7fe8df380220912fc96be1f6916040518060400160405280601e81526020017f4e67c3a26e2068c3a06e67207472616e682054c3b268652042616e6b2032000081525060405180610160016040528061013a81526020016200396961013a91396040518060400160405280601c81526020017f687474703a2f2f746f686562616e6b2e636f6d2f7061696e74696e6700000000815250620f424060405180606001604052806040815260200162002e76604091396040518060400160405280600a81526020017f30312f30312f32303230000000000000000000000000000000000000000000008152506040518060400160405280600a81526020017f30312f31392f32303230000000000000000000000000000000000000000000008152506040518060400160405280601081526020017f747520746869656e2c2074726520656d000000000000000000000000000000008152506200087c60201b60201c565b620001e0600073ad6d6717a14a1f7fe8df380220912fc96be1f6916040518060400160405280600a81526020017f746f646179207465737400000000000000000000000000000000000000000000815250614e2062000afb60201b60201c565b6200034e73bf3d2b9ab49c87aa82d8d0baba193c7520aabe126040518060400160405280601e81526020017f4e67c3a26e2068c3a06e67207472616e682054c3b268652042616e6b2031000081525060405180610160016040528061013a81526020016200396961013a91396040518060400160405280601c81526020017f687474703a2f2f746f686562616e6b2e636f6d2f7061696e74696e6700000000815250620f424060405180606001604052806040815260200162002e76604091396040518060400160405280600a81526020017f30312f30312f32303230000000000000000000000000000000000000000000008152506040518060400160405280600a81526020017f30312f31392f32303230000000000000000000000000000000000000000000008152506040518060400160405280601081526020017f747520746869656e2c2074726520656d000000000000000000000000000000008152506200087c60201b60201c565b620004bc73bf3d2b9ab49c87aa82d8d0baba193c7520aabe126040518060400160405280601c81526020017f4e67c3a26e2068c3a06e67207472616e682054c3b268652042616e6b0000000081525060405180610160016040528061013a81526020016200396961013a91396040518060400160405280601c81526020017f687474703a2f2f746f686562616e6b2e636f6d2f7061696e74696e6700000000815250620f424060405180606001604052806040815260200162002e76604091396040518060400160405280600a81526020017f30312f30312f32303230000000000000000000000000000000000000000000008152506040518060400160405280600a81526020017f30312f31392f32303230000000000000000000000000000000000000000000008152506040518060400160405280601081526020017f747520746869656e2c2074726520656d000000000000000000000000000000008152506200087c60201b60201c565b620005f473fd2a82d9c0e373ba6a8a8689741a7fc433d5861f604051806060016040528060378152602001620037fb60379139604051806106c001604052806106a0815260200162002ee96106a091396040518060400160405280601781526020017f68747470733a2f2f7777772e7569742e6564752e766e2f0000000000000000008152506302160ec060405180610120016040528060fe81526020016200368c60fe91396040518060400160405280600a81526020017f30312f30312f32303230000000000000000000000000000000000000000000008152506040518060400160405280600a81526020017f30312f32302f323032300000000000000000000000000000000000000000000081525060405180606001604052806033815260200162003aa3603391396200087c60201b60201c565b6200072773fd2a82d9c0e373ba6a8a8689741a7fc433d5861f60405180606001604052806033815260200162002eb6603391396040518060c00160405280608c815260200162003832608c91396040518060400160405280601781526020017f68747470733a2f2f7777772e7569742e6564752e766e2f000000000000000000815250621e84806040518060a00160405280607181526020016200378a607191396040518060400160405280600a81526020017f30312f30312f32303230000000000000000000000000000000000000000000008152506040518060400160405280600a81526020017f30312f32312f323032300000000000000000000000000000000000000000000081525060405180606001604052806032815260200162003589603291396200087c60201b60201c565b6200087673fd2a82d9c0e373ba6a8a8689741a7fc433d5861f6040518060400160405280601e81526020017f436869e1babf6e2064e1bb8b63682054e1babf742073756d2076e1baa77900008152506040518060e0016040528060ab8152602001620038be60ab91396040518060a00160405280606381526020016200362960639139626acfc06040518060a00160405280606e8152602001620035bb606e91396040518060400160405280600a81526020017f30312f31372f32303230000000000000000000000000000000000000000000008152506040518060400160405280600a81526020017f30322f31352f32303230000000000000000000000000000000000000000000008152506040518060400160405280601b81526020017f54e1babf742c206ce1bb852068e1bb99692c207472e1babb20656d00000000008152506200087c60201b60201c565b62000ebe565b6200088662000d44565b604051806101a0016040528060008054905062ffffff1681526020018b73ffffffffffffffffffffffffffffffffffffffff1681526020018a815260200189815260200188815260200187815260200186815260200185815260200184815260200183815260200160006002811115620008fc57fe5b815260200160008152602001600062ffffff16815250905060008190806001815401808255809150506001900390600052602060002090600d020160009091909190915060008201518160000160006101000a81548162ffffff021916908362ffffff16021790555060208201518160000160036101000a81548173ffffffffffffffffffffffffffffffffffffffff021916908373ffffffffffffffffffffffffffffffffffffffff1602179055506040820151816001019080519060200190620009ca92919062000dd8565b506060820151816002019080519060200190620009e992919062000dd8565b50608082015181600301908051906020019062000a0892919062000dd8565b5060a0820151816004015560c082015181600501908051906020019062000a3192919062000dd8565b5060e082015181600601908051906020019062000a5092919062000dd8565b5061010082015181600701908051906020019062000a7092919062000dd8565b5061012082015181600801908051906020019062000a9092919062000dd8565b506101408201518160090160006101000a81548160ff0219169083600281111562000ab757fe5b021790555061016082015181600a015561018082015181600b0160006101000a81548162ffffff021916908362ffffff160217905550505050505050505050505050565b62000b0562000e5f565b60405180606001604052808573ffffffffffffffffffffffffffffffffffffffff1681526020018481526020018381525090508060008662ffffff168154811062000b4c57fe5b90600052602060002090600d0201600c016000808862ffffff168154811062000b7157fe5b90600052602060002090600d0201600b0160009054906101000a900462ffffff1662ffffff1662ffffff16815260200190815260200160002060008201518160000160006101000a81548173ffffffffffffffffffffffffffffffffffffffff021916908373ffffffffffffffffffffffffffffffffffffffff160217905550602082015181600101908051906020019062000c0f92919062000dd8565b5060408201518160020155905050600160008662ffffff168154811062000c3257fe5b90600052602060002090600d0201600b0160008282829054906101000a900462ffffff160192506101000a81548162ffffff021916908362ffffff1602179055508160008662ffffff168154811062000c8757fe5b90600052602060002090600d0201600a016000828254019250508190555060008562ffffff168154811062000cb857fe5b90600052602060002090600d02016004015460008662ffffff168154811062000cdd57fe5b90600052602060002090600d0201600a01541062000d3d57600160008662ffffff168154811062000d0a57fe5b90600052602060002090600d020160090160006101000a81548160ff0219169083600281111562000d3757fe5b02179055505b5050505050565b604051806101a00160405280600062ffffff168152602001600073ffffffffffffffffffffffffffffffffffffffff16815260200160608152602001606081526020016060815260200160008152602001606081526020016060815260200160608152602001606081526020016000600281111562000dbf57fe5b815260200160008152602001600062ffffff1681525090565b828054600181600116156101000203166002900490600052602060002090601f016020900481019282601f1062000e1b57805160ff191683800117855562000e4c565b8280016001018555821562000e4c579182015b8281111562000e4b57825182559160200191906001019062000e2e565b5b50905062000e5b919062000e96565b5090565b6040518060600160405280600073ffffffffffffffffffffffffffffffffffffffff16815260200160608152602001600081525090565b62000ebb91905b8082111562000eb757600081600090555060010162000e9d565b5090565b90565b611fa88062000ece6000396000f3fe608060405234801561001057600080fd5b50600436106101375760003560e01c80637d53a478116100b8578063bea1e2ea1161007c578063bea1e2ea14610d00578063d1b1f6e914610dac578063d3c342e714610e58578063e9739e0114610ecb578063f5399bf514610f21578063f9b5a13514610f3f57610137565b80637d53a47814610a1c5780638bffa79914610ac8578063a95d34da14610b74578063b397afbd14610c68578063bba50d7614610cb957610137565b8063304992ab116100ff578063304992ab146107625780633c3e27f8146107a95780633ce82a4914610873578063549e6ff2146108c45780636578a4f91461097057610137565b806305293efc1461013c578063071533bb146101915780630b40cebc146102135780631319013914610683578063150e611f146106b6575b600080fd5b61016d6004803603602081101561015257600080fd5b81019080803562ffffff169060200190929190505050610ffa565b6040518082600281111561017d57fe5b60ff16815260200191505060405180910390f35b6101d1600480360360408110156101a757600080fd5b81019080803562ffffff169060200190929190803562ffffff169060200190929190505050611033565b604051808273ffffffffffffffffffffffffffffffffffffffff1673ffffffffffffffffffffffffffffffffffffffff16815260200191505060405180910390f35b610681600480360361012081101561022a57600080fd5b81019080803573ffffffffffffffffffffffffffffffffffffffff1690602001909291908035906020019064010000000081111561026757600080fd5b82018360208201111561027957600080fd5b8035906020019184600183028401116401000000008311171561029b57600080fd5b91908080601f016020809104026020016040519081016040528093929190818152602001838380828437600081840152601f19601f820116905080830192505050505050509192919290803590602001906401000000008111156102fe57600080fd5b82018360208201111561031057600080fd5b8035906020019184600183028401116401000000008311171561033257600080fd5b91908080601f016020809104026020016040519081016040528093929190818152602001838380828437600081840152601f19601f8201169050808301925050505050505091929192908035906020019064010000000081111561039557600080fd5b8201836020820111156103a757600080fd5b803590602001918460018302840111640100000000831117156103c957600080fd5b91908080601f016020809104026020016040519081016040528093929190818152602001838380828437600081840152601f19601f820116905080830192505050505050509192919290803590602001909291908035906020019064010000000081111561043657600080fd5b82018360208201111561044857600080fd5b8035906020019184600183028401116401000000008311171561046a57600080fd5b91908080601f016020809104026020016040519081016040528093929190818152602001838380828437600081840152601f19601f820116905080830192505050505050509192919290803590602001906401000000008111156104cd57600080fd5b8201836020820111156104df57600080fd5b8035906020019184600183028401116401000000008311171561050157600080fd5b91908080601f016020809104026020016040519081016040528093929190818152602001838380828437600081840152601f19601f8201169050808301925050505050505091929192908035906020019064010000000081111561056457600080fd5b82018360208201111561057657600080fd5b8035906020019184600183028401116401000000008311171561059857600080fd5b91908080601f016020809104026020016040519081016040528093929190818152602001838380828437600081840152601f19601f820116905080830192505050505050509192919290803590602001906401000000008111156105fb57600080fd5b82018360208201111561060d57600080fd5b8035906020019184600183028401116401000000008311171561062f57600080fd5b91908080601f016020809104026020016040519081016040528093929190818152602001838380828437600081840152601f19601f82011690508083019250505050505050919291929050505061109e565b005b6106b46004803603602081101561069957600080fd5b81019080803562ffffff16906020019092919050505061130b565b005b6106e7600480360360208110156106cc57600080fd5b81019080803562ffffff169060200190929190505050611353565b6040518080602001828103825283818151815260200191508051906020019080838360005b8381101561072757808201518184015260208101905061070c565b50505050905090810190601f1680156107545780820380516001836020036101000a031916815260200191505b509250505060405180910390f35b6107936004803603602081101561077857600080fd5b81019080803562ffffff169060200190929190505050611418565b6040518082815260200191505060405180910390f35b610871600480360360408110156107bf57600080fd5b81019080803562ffffff169060200190929190803590602001906401000000008111156107eb57600080fd5b8201836020820111156107fd57600080fd5b8035906020019184600183028401116401000000008311171561081f57600080fd5b91908080601f016020809104026020016040519081016040528093929190818152602001838380828437600081840152601f19601f820116905080830192505050505050509192919290505050611444565b005b6108a46004803603602081101561088957600080fd5b81019080803562ffffff169060200190929190505050611480565b604051808262ffffff1662ffffff16815260200191505060405180910390f35b6108f5600480360360208110156108da57600080fd5b81019080803562ffffff1690602001909291905050506114bb565b6040518080602001828103825283818151815260200191508051906020019080838360005b8381101561093557808201518184015260208101905061091a565b50505050905090810190601f1680156109625780820380516001836020036101000a031916815260200191505b509250505060405180910390f35b6109a16004803603602081101561098657600080fd5b81019080803562ffffff169060200190929190505050611580565b6040518080602001828103825283818151815260200191508051906020019080838360005b838110156109e15780820151818401526020810190506109c6565b50505050905090810190601f168015610a0e5780820380516001836020036101000a031916815260200191505b509250505060405180910390f35b610a4d60048036036020811015610a3257600080fd5b81019080803562ffffff169060200190929190505050611645565b6040518080602001828103825283818151815260200191508051906020019080838360005b83811015610a8d578082015181840152602081019050610a72565b50505050905090810190601f168015610aba5780820380516001836020036101000a031916815260200191505b509250505060405180910390f35b610af960048036036020811015610ade57600080fd5b81019080803562ffffff16906020019092919050505061170a565b6040518080602001828103825283818151815260200191508051906020019080838360005b83811015610b39578082015181840152602081019050610b1e565b50505050905090810190601f168015610b665780820380516001836020036101000a031916815260200191505b509250505060405180910390f35b610c6660048036036080811015610b8a57600080fd5b81019080803562ffffff169060200190929190803573ffffffffffffffffffffffffffffffffffffffff16906020019092919080359060200190640100000000811115610bd657600080fd5b820183602082011115610be857600080fd5b80359060200191846001830284011164010000000083111715610c0a57600080fd5b91908080601f016020809104026020016040519081016040528093929190818152602001838380828437600081840152601f19601f820116905080830192505050505050509192919290803590602001909291905050506117cf565b005b610c9960048036036020811015610c7e57600080fd5b81019080803562ffffff169060200190929190505050611a0b565b604051808262ffffff1662ffffff16815260200191505060405180910390f35b610cea60048036036020811015610ccf57600080fd5b81019080803562ffffff169060200190929190505050611a46565b6040518082815260200191505060405180910390f35b610d3160048036036020811015610d1657600080fd5b81019080803562ffffff169060200190929190505050611a72565b6040518080602001828103825283818151815260200191508051906020019080838360005b83811015610d71578082015181840152602081019050610d56565b50505050905090810190601f168015610d9e5780820380516001836020036101000a031916815260200191505b509250505060405180910390f35b610ddd60048036036020811015610dc257600080fd5b81019080803562ffffff169060200190929190505050611b37565b6040518080602001828103825283818151815260200191508051906020019080838360005b83811015610e1d578082015181840152602081019050610e02565b50505050905090810190601f168015610e4a5780820380516001836020036101000a031916815260200191505b509250505060405180910390f35b610e8960048036036020811015610e6e57600080fd5b81019080803562ffffff169060200190929190505050611bfc565b604051808273ffffffffffffffffffffffffffffffffffffffff1673ffffffffffffffffffffffffffffffffffffffff16815260200191505060405180910390f35b610f0b60048036036040811015610ee157600080fd5b81019080803562ffffff169060200190929190803562ffffff169060200190929190505050611c48565b6040518082815260200191505060405180910390f35b610f29611c93565b6040518082815260200191505060405180910390f35b610f7f60048036036040811015610f5557600080fd5b81019080803562ffffff169060200190929190803562ffffff169060200190929190505050611c9f565b6040518080602001828103825283818151815260200191508051906020019080838360005b83811015610fbf578082015181840152602081019050610fa4565b50505050905090810190601f168015610fec5780820380516001836020036101000a031916815260200191505b509250505060405180910390f35b6000808262ffffff168154811061100d57fe5b90600052602060002090600d020160090160009054906101000a900460ff169050919050565b6000808362ffffff168154811061104657fe5b90600052602060002090600d0201600c0160008362ffffff1662ffffff16815260200190815260200160002060000160009054906101000a900473ffffffffffffffffffffffffffffffffffffffff16905092915050565b6110a6611d83565b604051806101a0016040528060008054905062ffffff1681526020018b73ffffffffffffffffffffffffffffffffffffffff1681526020018a81526020018981526020018881526020018781526020018681526020018581526020018481526020018381526020016000600281111561111b57fe5b815260200160008152602001600062ffffff16815250905060008190806001815401808255809150506001900390600052602060002090600d020160009091909190915060008201518160000160006101000a81548162ffffff021916908362ffffff16021790555060208201518160000160036101000a81548173ffffffffffffffffffffffffffffffffffffffff021916908373ffffffffffffffffffffffffffffffffffffffff16021790555060408201518160010190805190602001906111e7929190611e16565b506060820151816002019080519060200190611204929190611e16565b506080820151816003019080519060200190611221929190611e16565b5060a0820151816004015560c0820151816005019080519060200190611248929190611e16565b5060e0820151816006019080519060200190611265929190611e16565b50610100820151816007019080519060200190611283929190611e16565b506101208201518160080190805190602001906112a1929190611e16565b506101408201518160090160006101000a81548160ff021916908360028111156112c757fe5b021790555061016082015181600a015561018082015181600b0160006101000a81548162ffffff021916908362ffffff160217905550505050505050505050505050565b600260008262ffffff168154811061131f57fe5b90600052602060002090600d020160090160006101000a81548160ff0219169083600281111561134b57fe5b021790555050565b606060008262ffffff168154811061136757fe5b90600052602060002090600d02016008018054600181600116156101000203166002900480601f01602080910402602001604051908101604052809291908181526020018280546001816001161561010002031660029004801561140c5780601f106113e15761010080835404028352916020019161140c565b820191906000526020600020905b8154815290600101906020018083116113ef57829003601f168201915b50505050509050919050565b6000808262ffffff168154811061142b57fe5b90600052602060002090600d0201600401549050919050565b8060008362ffffff168154811061145757fe5b90600052602060002090600d0201600201908051906020019061147b929190611e96565b505050565b6000808262ffffff168154811061149357fe5b90600052602060002090600d020160000160009054906101000a900462ffffff169050919050565b606060008262ffffff16815481106114cf57fe5b90600052602060002090600d02016002018054600181600116156101000203166002900480601f0160208091040260200160405190810160405280929190818152602001828054600181600116156101000203166002900480156115745780601f1061154957610100808354040283529160200191611574565b820191906000526020600020905b81548152906001019060200180831161155757829003601f168201915b50505050509050919050565b606060008262ffffff168154811061159457fe5b90600052602060002090600d02016006018054600181600116156101000203166002900480601f0160208091040260200160405190810160405280929190818152602001828054600181600116156101000203166002900480156116395780601f1061160e57610100808354040283529160200191611639565b820191906000526020600020905b81548152906001019060200180831161161c57829003601f168201915b50505050509050919050565b606060008262ffffff168154811061165957fe5b90600052602060002090600d02016001018054600181600116156101000203166002900480601f0160208091040260200160405190810160405280929190818152602001828054600181600116156101000203166002900480156116fe5780601f106116d3576101008083540402835291602001916116fe565b820191906000526020600020905b8154815290600101906020018083116116e157829003601f168201915b50505050509050919050565b606060008262ffffff168154811061171e57fe5b90600052602060002090600d02016005018054600181600116156101000203166002900480601f0160208091040260200160405190810160405280929190818152602001828054600181600116156101000203166002900480156117c35780601f10611798576101008083540402835291602001916117c3565b820191906000526020600020905b8154815290600101906020018083116117a657829003601f168201915b50505050509050919050565b6117d7611f16565b60405180606001604052808573ffffffffffffffffffffffffffffffffffffffff1681526020018481526020018381525090508060008662ffffff168154811061181d57fe5b90600052602060002090600d0201600c016000808862ffffff168154811061184157fe5b90600052602060002090600d0201600b0160009054906101000a900462ffffff1662ffffff1662ffffff16815260200190815260200160002060008201518160000160006101000a81548173ffffffffffffffffffffffffffffffffffffffff021916908373ffffffffffffffffffffffffffffffffffffffff16021790555060208201518160010190805190602001906118dd929190611e16565b5060408201518160020155905050600160008662ffffff16815481106118ff57fe5b90600052602060002090600d0201600b0160008282829054906101000a900462ffffff160192506101000a81548162ffffff021916908362ffffff1602179055508160008662ffffff168154811061195357fe5b90600052602060002090600d0201600a016000828254019250508190555060008562ffffff168154811061198357fe5b90600052602060002090600d02016004015460008662ffffff16815481106119a757fe5b90600052602060002090600d0201600a015410611a0457600160008662ffffff16815481106119d257fe5b90600052602060002090600d020160090160006101000a81548160ff021916908360028111156119fe57fe5b02179055505b5050505050565b6000808262ffffff1681548110611a1e57fe5b90600052602060002090600d0201600b0160009054906101000a900462ffffff169050919050565b6000808262ffffff1681548110611a5957fe5b90600052602060002090600d0201600a01549050919050565b606060008262ffffff1681548110611a8657fe5b90600052602060002090600d02016007018054600181600116156101000203166002900480601f016020809104026020016040519081016040528092919081815260200182805460018160011615610100020316600290048015611b2b5780601f10611b0057610100808354040283529160200191611b2b565b820191906000526020600020905b815481529060010190602001808311611b0e57829003601f168201915b50505050509050919050565b606060008262ffffff1681548110611b4b57fe5b90600052602060002090600d02016003018054600181600116156101000203166002900480601f016020809104026020016040519081016040528092919081815260200182805460018160011615610100020316600290048015611bf05780601f10611bc557610100808354040283529160200191611bf0565b820191906000526020600020905b815481529060010190602001808311611bd357829003601f168201915b50505050509050919050565b6000808262ffffff1681548110611c0f57fe5b90600052602060002090600d020160000160039054906101000a900473ffffffffffffffffffffffffffffffffffffffff169050919050565b6000808362ffffff1681548110611c5b57fe5b90600052602060002090600d0201600c0160008362ffffff1662ffffff16815260200190815260200160002060020154905092915050565b60008080549050905090565b606060008362ffffff1681548110611cb357fe5b90600052602060002090600d0201600c0160008362ffffff1662ffffff1681526020019081526020016000206001018054600181600116156101000203166002900480601f016020809104026020016040519081016040528092919081815260200182805460018160011615610100020316600290048015611d765780601f10611d4b57610100808354040283529160200191611d76565b820191906000526020600020905b815481529060010190602001808311611d5957829003601f168201915b5050505050905092915050565b604051806101a00160405280600062ffffff168152602001600073ffffffffffffffffffffffffffffffffffffffff168152602001606081526020016060815260200160608152602001600081526020016060815260200160608152602001606081526020016060815260200160006002811115611dfd57fe5b815260200160008152602001600062ffffff1681525090565b828054600181600116156101000203166002900490600052602060002090601f016020900481019282601f10611e5757805160ff1916838001178555611e85565b82800160010185558215611e85579182015b82811115611e84578251825591602001919060010190611e69565b5b509050611e929190611f4d565b5090565b828054600181600116156101000203166002900490600052602060002090601f016020900481019282601f10611ed757805160ff1916838001178555611f05565b82800160010185558215611f05579182015b82811115611f04578251825591602001919060010190611ee9565b5b509050611f129190611f4d565b5090565b6040518060600160405280600073ffffffffffffffffffffffffffffffffffffffff16815260200160608152602001600081525090565b611f6f91905b80821115611f6b576000816000905550600101611f53565b5090565b9056fea26469706673582212209e2727df1fd93808beca3c5b9e6020dcd883105e0e3df9625eae9a782507cecd64736f6c63430006020033687474703a2f2f746f686562616e6b2e636f6d2f61646d696e2f2f75706c6f6164732f6e6577732f3134383032353131373050574e5f373339382d332e6a7067564e50686f746f202d204375e1bb996320746869206368e1bba57020e1baa36e6820c491e1bab970205669e1bb8774204e616d43c3a163206368c6b0c6a16e67207472c3ac6e6820c491c3a06f2074e1baa16f2063e1bba761205472c6b0e1bb9d6e6720c491c6b0e1bba36320746869e1babf74206be1babf20c491c3a17020e1bba96e672074e1bb9174206e68752063e1baa7752068e1bb8d632074e1baad702c206e676869c3aa6e2063e1bba97520c491612064e1baa16e672063e1bba761206e67c6b0e1bb9d692068e1bb8d632076c3a02063756e672063e1baa570206e6775e1bb936e206e68c3a26e206ce1bbb163206368e1baa574206cc6b0e1bba36e672063616f207468656f2079c3aa752063e1baa7752063e1bba7612078c3a32068e1bb99692076e1bb81206cc4a96e682076e1bbb16320434e5454265454207468656f2063c3a1632063e1baa57020c491e1bb992074e1bbab2062e1baad6320c491c3a06f2074e1baa16f20c491e1baa1692068e1bb8d6320c491e1babf6e2073617520c491e1baa1692068e1bb8d63202862616f2067e1bb936d207468e1baa1632073e1bbb92076c3a0207469e1babf6e2073e1bbb9292e205472c6b0e1bb9d6e672063c3b3203137206368c6b0c6a16e67207472c3ac6e68206368c3ad6e682071757920c491c3a06f2074e1baa16f2062e1baad63206be1bbb92073c6b02076c3a02063e1bbad206e68c3a26e2e2042c3aa6e2063e1baa16e6820c491c3b32c206cc3a0206de1bb99742074726f6e67203038207472c6b0e1bb9d6e67207472e1bb8d6e6720c49169e1bb836d2076e1bb8120c491c3a06f2074e1baa16f206e67c3a06e6820416e20746fc3a06e205468c3b46e672074696e2063e1bba761205669e1bb8774204e616d2076c3a020c491c3a17020e1bba96e672063c3a163206e68752063e1baa77520c491e1bab763206269e1bb87742063e1bba7612078c3a32068e1bb99692c205472c6b0e1bb9d6e672063c3b3203037206368c6b0c6a16e67207472c3ac6e6820c491c3a06f2074e1baa16f20c491e1bab763206269e1bb8774202868e1bb87206368c3ad6e6820717579292063c3a163206e67c3a06e683a206be1bbb92073c6b02074c3a069206ec4836e67206e67c3a06e6820416e20746fc3a06e205468c3b46e672074696e2c206368c6b0c6a16e67207472c3ac6e68207469c3aa6e207469e1babf6e206e67c3a06e682048e1bb87207468e1bb916e67205468c3b46e672074696e2c2063e1bbad206e68c3a26e2074c3a069206ec4836e67206e67c3a06e68204b686f612068e1bb8d63204dc3a1792074c3ad6e6820762e76e280a6e1bb9e2062e1baad6320c491c3a06f2074e1baa16f2073617520c491e1baa1692068e1bb8d632c2063c3b3203033206368c6b0c6a16e67207472c3ac6e6820c491c3a06f2074e1baa16f207472c3ac6e6820c491e1bb99207468e1baa1632073c4a920286e67c3a06e68206b686f612068e1bb8d63206dc3a1792074c3ad6e682c2063c3b46e67206e6768e1bb87207468c3b46e672074696e207661cc802068c3aacca3207468c3b4cc816e67207468c3b46e672074696e292076c3a0203032206368c6b0c6a16e67207472c3ac6e6820c491c3a06f2074e1baa16f207472c3ac6e6820c491e1bb99207469e1babf6e2073c4a920286e67c3a06e68206b686f612068e1bb8d63206dc3a1792074c3ad6e682076c3a02063c3b46e67206e6768e1bb87207468c3b46e672074696e292e205468c3b46e67207175612063c3a163206368c6b0c6a16e67207472c3ac6e6820c491c3a06f2074e1baa16f207469c3aa6e207469e1babf6e2c20434e545420c491c6b0e1bba36320e1bba96e672064e1bba56e67206de1baa16e68206de1babd2074726f6e67207175c3a1207472c3ac6e682074e1bb95206368e1bba96320c491c3a06f2074e1baa16f2c207468617920c491e1bb9569206ee1bb99692064756e672c207068c6b0c6a16e67207068c3a170206769e1baa36e672064e1baa179207468656f2068c6b0e1bb9b6e67206869e1bb876e20c491e1baa1692076c3a02062c3a16d2073c3a1742063c3a1632079c3aa752063e1baa7752063e1bba761207468e1bbb163207469e1bb856e2c20c491e1bb936e67207468e1bb9d692074c4836e672063c6b0e1bb9d6e67206b68e1baa3206ec4836e672073e1bbad2064e1bba56e67207469e1babf6e6720416e682063686f206e67c6b0e1bb9d692068e1bb8d632e2054e1bb956e672073e1bb912073696e68207669c3aa6e2c2068e1bb8d63207669c3aa6e2063616f2068e1bb8d632076c3a0206e676869c3aa6e2063e1bba9752073696e68206869e1bb876e206e61792063e1bba761205472c6b0e1bb9d6e67206cc3a02068c6a16e20362e3030302ec491e1baa574206ec6b0e1bb9b632c207175c3aa2068c6b0c6a16e672c20e1baa36e68206e6768e1bb8720746875e1baad7468747470733a2f2f696d616765732e706578656c732e636f6d2f70686f746f732f313231323830352f706578656c732d70686f746f2d313231323830352e6a7065673f6175746f3d636f6d70726573732663733d74696e7973726762266470723d3226683d36353026773d39343068747470733a2f2f74756f697472652e766e2f686f61742d646f6e672d746869656e2d6e677579656e2d7465742d7472652d656d2d7461692d6c652d686f692d7465742d766965742d323032302d32303230303130353039313531393238372e68746d68747470733a2f2f73636f6e74656e742e6673676e352d352e666e612e666263646e2e6e65742f762f7433312e302d382f31333232313330305f313038333232343233313731393537365f323735373830393734323036323336323231325f6f2e6a70673f5f6e635f6361743d313030265f6e635f6f68633d556e4e537851643959303041516e726a61336c556153435665596f4a6473644c393469484252777267684f50556d713764316d6a4142634b41265f6e635f68743d73636f6e74656e742e6673676e352d352e666e61266f683d3666353437326234643434373534316538626134633764626338376437306235266f653d354539443131373468747470733a2f2f696d616765732e756e73706c6173682e636f6d2f70686f746f2d313532313031393739353835342d3134653135663630303938303f69786c69623d72622d312e322e3126697869643d65794a6863484266615751694f6a45794d446439266175746f3d666f726d617453747564656e742047726f77202d2043e1bb996e6720c491e1bb936e672068e1bb95207472e1bba32073696e68207669c3aa6e2055495448c3a3792063c3b96e67206769c3ba7020c491e1bba1206e68e1bbaf6e67206e6869e1babf7020e1baa36e68206769612063c3b320c491c6b0e1bba363206e68e1bbaf6e672074e1baa56d2068c3ac6e6820c491e1bab970206e68e1baa5742076e1bb81207175c3aa2068c6b0c6a16e6720c491e1baa574206ec6b0e1bb9b63205669e1bb8774204e616d2e43c3b96e67206368756e672074617920e1bba76e672068e1bb992063c3a163207472e1babb20656d206e6768c3a86f20c491e1bb832063c3a16320656d2063c3b3207468e1bb83206b68c3a16d207068c3a1206e67c3a0792054e1babf742074727579e1bb816e207468e1bb916e672076c3a0206e68e1bbaf6e6720686fe1baa17420c491e1bb996e67207468c3ba2076e1bb8b2074726f6e67206e67c3a079206ce1bb85206ec3a0792e54c3b268652042616e6b206cc3a0206e67c3a26e2068c3a06e67207472616e68207472e1babb20656d207472e1bbb16320747579e1babf6e20c491e1baa775207469c3aa6e2076c3a020647579206e68e1baa5742074e1baa169205669e1bb8774204e616d202863686f20c491e1babf6e207468e1bb9d6920c49169e1bb836d206869e1bb876e2074e1baa169292e204368c3ba6e672074c3b4692074e1baad702068e1bba3702c207472c6b06e672062c3a0792076c3a0206769e1bb9b6920746869e1bb8775207472616e682076e1babd2063e1bba7612063c3a16320656d206e68e1bb8f20e1bb9f206b68e1baaf70206de1bb8d69206ec6a1692c206b68c3b46e67207068c3a26e206269e1bb8774207175e1bb9163206769612c2064c3a26e2074e1bb99632068617920686fc3a06e2063e1baa36e682ec3bd2074c6b0e1bb9f6e672c2073696e68207669c3aa6e2c2064e1bbb120c3a16e2063c3b46e67206e6768e1bb872c20554954",
  "source": "pragma solidity ^0.6.1;\r\n\r\ncontract Crowdfunding\r\n{\r\n    enum CampaignStatus\r\n    {\r\n        Open,\r\n        GoalAchieved,\r\n        Closed\r\n    }\r\n    \r\n    Campaign[] ListOfCampaigns;\r\n\r\n    constructor() public\r\n    {\r\n        CreateNewCampaign(0xAd6d6717a14a1F7fE8DF380220912fC96Be1F691,\r\n                        \"Ngn hng tranh The Bank 2\",\r\n                        \"The Bank l ngn hng tranh tr em trc tuyn u tin v duy nht ti Vit Nam (cho n thi im hin ti). Chng ti tp hp, trng by v gii thiu tranh v ca cc em nh  khp mi ni, khng phn bit quc gia, dn tc hay hon cnh.\",\r\n                        \"http://tohebank.com/painting\",\r\n                        1000000,\r\n                        \"http://tohebank.com/admin//uploads/news/1480251170PWN_7398-3.jpg\",\r\n                        \"01/01/2020\",\r\n                        \"01/19/2020\",\r\n                        \"tu thien, tre em\");\r\n        ContributeToCampaign(0, 0xAd6d6717a14a1F7fE8DF380220912fC96Be1F691, 'today test', 20000);\r\n        CreateNewCampaign(0xBf3d2b9AB49c87aa82D8D0babA193C7520aABE12,\r\n                        \"Ngn hng tranh The Bank 1\",\r\n                        \"The Bank l ngn hng tranh tr em trc tuyn u tin v duy nht ti Vit Nam (cho n thi im hin ti). Chng ti tp hp, trng by v gii thiu tranh v ca cc em nh  khp mi ni, khng phn bit quc gia, dn tc hay hon cnh.\",\r\n                        \"http://tohebank.com/painting\",\r\n                        1000000,\r\n                        \"http://tohebank.com/admin//uploads/news/1480251170PWN_7398-3.jpg\",\r\n                        \"01/01/2020\",\r\n                        \"01/19/2020\",\r\n                        \"tu thien, tre em\");\r\n        CreateNewCampaign(0xBf3d2b9AB49c87aa82D8D0babA193C7520aABE12,\r\n                        \"Ngn hng tranh The Bank\",\r\n                        \"The Bank l ngn hng tranh tr em trc tuyn u tin v duy nht ti Vit Nam (cho n thi im hin ti). Chng ti tp hp, trng by v gii thiu tranh v ca cc em nh  khp mi ni, khng phn bit quc gia, dn tc hay hon cnh.\",\r\n                        \"http://tohebank.com/painting\",\r\n                        1000000,\r\n                        \"http://tohebank.com/admin//uploads/news/1480251170PWN_7398-3.jpg\",\r\n                        \"01/01/2020\",\r\n                        \"01/19/2020\",\r\n                        \"tu thien, tre em\");\r\n        CreateNewCampaign(0xfD2A82d9C0e373Ba6a8A8689741a7Fc433d5861F,\r\n                        \"Student Grow - Cng ng h tr sinh vin UIT\",\r\n                        \"Cc chng trnh o to ca Trng c thit k p ng tt nhu cu hc tp, nghin cu a dng ca ngi hc v cung cp ngun nhn lc cht lng cao theo yu cu ca x hi v lnh vc CNTT&TT theo cc cp  t bc o to i hc n sau i hc (bao gm thc s v tin s). Trng c 17 chng trnh chnh quy o to bc k s v c nhn. Bn cnh , l mt trong 08 trng trng im v o to ngnh An ton Thng tin ca Vit Nam v p ng cc nhu cu c bit ca x hi, Trng c 07 chng trnh o to c bit (h chnh quy) cc ngnh: k s ti nng ngnh An ton Thng tin, chng trnh tin tin ngnh H thng Thng tin, c nhn ti nng ngnh Khoa hc My tnh v.v bc o to sau i hc, c 03 chng trnh o to trnh  thc s (ngnh khoa hc my tnh, cng ngh thng tin va h thng thng tin) v 02 chng trnh o to trnh  tin s (ngnh khoa hc my tnh v cng ngh thng tin). Thng qua cc chng trnh o to tin tin, CNTT c ng dng mnh m trong qu trnh t chc o to, thay i ni dung, phng php ging dy theo hng hin i v bm st cc yu cu ca thc tin, ng thi tng cng kh nng s dng ting Anh cho ngi hc. Tng s sinh vin, hc vin cao hc v nghin cu sinh hin nay ca Trng l hn 6.000.\",\r\n                        \"https://www.uit.edu.vn/\",\r\n                        35000000,\r\n                        \"https://scontent.fsgn5-5.fna.fbcdn.net/v/t31.0-8/13221300_1083224231719576_2757809742062362212_o.jpg?_nc_cat=100&_nc_ohc=UnNSxQd9Y00AQnrja3lUaSCVeYoJdsdL94iHBRwrghOPUmq7d1mjABcKA&_nc_ht=scontent.fsgn5-5.fna&oh=6f5472b4d447541e8ba4c7dbc87d70b5&oe=5E9D1174\",\r\n                        \"01/01/2020\",\r\n                        \"01/20/2020\",\r\n                        \" tng, sinh vin, d n cng ngh, UIT\");\r\n        CreateNewCampaign(0xfD2A82d9C0e373Ba6a8A8689741a7Fc433d5861F,\r\n                        \"VNPhoto - Cuc thi chp nh p Vit Nam\",\r\n                        \"Hy cng gip  nhng nhip nh gia c c nhng tm hnh p nht v qu hng t nc Vit Nam.\",\r\n                        \"https://www.uit.edu.vn/\",\r\n                        2000000,\r\n                        \"https://images.unsplash.com/photo-1521019795854-14e15f600980?ixlib=rb-1.2.1&ixid=eyJhcHBfaWQiOjEyMDd9&auto=format\",\r\n                        \"01/01/2020\",\r\n                        \"01/21/2020\",\r\n                        \"t nc, qu hng, nh ngh thut\");\r\n        CreateNewCampaign(0xfD2A82d9C0e373Ba6a8A8689741a7Fc433d5861F,\r\n                        \"Chin dch Tt sum vy\",\r\n                        \"Cng chung tay ng h cc tr em ngho  cc em c th khm ph ngy Tt truyn thng v nhng hot ng th v trong ngy l ny.\",\r\n                        \"https://tuoitre.vn/hoat-dong-thien-nguyen-tet-tre-em-tai-le-hoi-tet-viet-2020-20200105091519287.htm\",\r\n                        7000000,\r\n                        \"https://images.pexels.com/photos/1212805/pexels-photo-1212805.jpeg?auto=compress&cs=tinysrgb&dpr=2&h=650&w=940\",\r\n                        \"01/17/2020\",\r\n                        \"02/15/2020\",\r\n                        \"Tt, l hi, tr em\");\r\n    }\r\n\r\n    struct Campaign\r\n    {\r\n        uint24 ID;\r\n        address payable owner;\r\n        string name;\r\n        string description;\r\n        string link;\r\n        uint goal;\r\n        string imageLink;\r\n        string startDate;\r\n        string endDate;\r\n        string tags;\r\n        CampaignStatus status;\r\n        uint moneyCollected;\r\n        uint24 totalContributors;\r\n        mapping (uint24 => Contributor) contributors;\r\n    }\r\n\r\n    struct Contributor\r\n    {\r\n        address payable contributor;\r\n        string date;\r\n        uint amount;\r\n    }\r\n    \r\n    function CreateNewCampaign\r\n    (\r\n        address payable _owner,\r\n        string memory _name,\r\n        string memory _description,\r\n        string memory _link,\r\n        uint _goal,\r\n        string memory _imageLink,\r\n        string memory _startDate,\r\n        string memory _endDate,\r\n        string memory _tags\r\n    ) public\r\n    {\r\n        Campaign memory newCampaign = Campaign({\r\n                                                ID: uint24(ListOfCampaigns.length),\r\n                                                owner: _owner,\r\n                                                name: _name,\r\n                                                description: _description,\r\n                                                link: _link,\r\n                                                goal: _goal,\r\n                                                imageLink: _imageLink,\r\n                                                startDate: _startDate,\r\n                                                endDate: _endDate,\r\n                                                tags: _tags,\r\n                                                status: CampaignStatus.Open,\r\n                                                moneyCollected: 0,\r\n                                                totalContributors: 0\r\n                                            });\r\n\r\n        ListOfCampaigns.push(newCampaign);\r\n    }\r\n    \r\n    function ContributeToCampaign\r\n    (\r\n        uint24 _campaignID,\r\n        address payable _contributor,\r\n        string memory _date,\r\n        uint _amount\r\n    ) public\r\n    {\r\n        Contributor memory newContributor = Contributor({\r\n                                                            contributor: _contributor,\r\n                                                            date: _date,\r\n                                                            amount: _amount\r\n                                                        });\r\n                                                        \r\n        // add a new contribution record to the project's contributor list\r\n        ListOfCampaigns[_campaignID].contributors[uint24(ListOfCampaigns[_campaignID].totalContributors)] = newContributor;\r\n        ListOfCampaigns[_campaignID].totalContributors += 1;\r\n        \r\n        // Update the total money funded\r\n        ListOfCampaigns[_campaignID].moneyCollected += _amount;\r\n        if (ListOfCampaigns[_campaignID].moneyCollected >= ListOfCampaigns[_campaignID].goal)\r\n        {\r\n            ListOfCampaigns[_campaignID].status = CampaignStatus.GoalAchieved;\r\n        }\r\n    }\r\n    \r\n    function CloseCampaign(uint24 _campaignID) public\r\n    {\r\n        ListOfCampaigns[_campaignID].status = CampaignStatus.Closed;\r\n    }\r\n    \r\n    function GetNumberOfCampaigns() public view returns (uint)\r\n    {\r\n        return ListOfCampaigns.length;\r\n    }\r\n    \r\n    function GetCampaignOwner(uint24 _campaignID) public view returns (address)\r\n    {\r\n        return ListOfCampaigns[_campaignID].owner;\r\n    }\r\n    \r\n    function GetCampaignID(uint24 _campaignID) public view returns (uint24)\r\n    {\r\n        return ListOfCampaigns[_campaignID].ID;\r\n    }\r\n    \r\n    function GetCampaignImageLink(uint24 _campaignID) public view returns (string memory)\r\n    {\r\n        return ListOfCampaigns[_campaignID].imageLink;\r\n    }\r\n    \r\n    function GetCampaignName(uint24 _campaignID) public view returns (string memory)\r\n    {\r\n        return ListOfCampaigns[_campaignID].name;\r\n    }\r\n    \r\n    function GetCampaignDescription(uint24 _campaignID) public view returns (string memory)\r\n    {\r\n        return ListOfCampaigns[_campaignID].description;\r\n    }\r\n    \r\n    function SetCampaignDescription(uint24 _campaignID, string memory _description) public\r\n    {\r\n        ListOfCampaigns[_campaignID].description = _description;\r\n    }\r\n    \r\n    function GetCampaignLink(uint24 _campaignID) public view returns (string memory)\r\n    {\r\n        return ListOfCampaigns[_campaignID].link;\r\n    }\r\n    \r\n    function GetCampaignStartDate(uint24 _campaignID) public view returns (string memory)\r\n    {\r\n        return ListOfCampaigns[_campaignID].startDate;\r\n    }\r\n    \r\n    function GetCampaignEndDate(uint24 _campaignID) public view returns (string memory)\r\n    {\r\n        return ListOfCampaigns[_campaignID].endDate;\r\n    }\r\n    \r\n    function GetCampaignTags(uint24 _campaignID) public view returns (string memory)\r\n    {\r\n        return ListOfCampaigns[_campaignID].tags;\r\n    }\r\n    \r\n    function GetCampaignStatus(uint24 _campaignID) public view returns (CampaignStatus)\r\n    {\r\n        return ListOfCampaigns[_campaignID].status;\r\n    }\r\n    \r\n    function GetCampaignGoal(uint24 _campaignID) public view returns (uint)\r\n    {\r\n        return ListOfCampaigns[_campaignID].goal;\r\n    }\r\n    \r\n    function GetCampaignMoneyCollected(uint24 _campaignID) public view returns (uint)\r\n    {\r\n        return ListOfCampaigns[_campaignID].moneyCollected;\r\n    }\r\n    \r\n    function GetCampaignTotalContributors(uint24 _campaignID) public view returns (uint24)\r\n    {\r\n        return ListOfCampaigns[_campaignID].totalContributors;\r\n    }\r\n    \r\n    function GetCampaignContributor(uint24 _campaignID, uint24 _index) public view returns (address)\r\n    {\r\n        return ListOfCampaigns[_campaignID].contributors[_index].contributor;\r\n    }\r\n    \r\n    function GetCampaignContributionDate(uint24 _campaignID, uint24 _index) public view returns (string memory)\r\n    {\r\n        return ListOfCampaigns[_campaignID].contributors[_index].date;\r\n    }\r\n    \r\n    function GetCampaignContributionAmount(uint24 _campaignID, uint24 _index) public view returns (uint)\r\n    {\r\n        return ListOfCampaigns[_campaignID].contributors[_index].amount;\r\n    }\r\n}",
  "sourcePath": "D:/Project/UIT-graduation-thesis-Crowdfunding-project/contracts/Crowdfunding.sol",
  "compiler": {
    "name": "solc",
    "version": "0.6.2+commit.bacdbe57.Emscripten.clang"
  },
  "schemaVersion": "3.0.22",
  "updatedAt": "2020-01-28T08:19:31.618Z",
  "networkType": "ethereum",
  "devdoc": {
    "methods": {}
  },
  "userdoc": {
    "methods": {}
  }
}