{
  "contractName": "Crowdfunding",
  "abi": [
    {
      "inputs": [],
      "stateMutability": "nonpayable",
      "type": "constructor"
    },
    {
      "inputs": [
        {
          "internalType": "address payable",
          "name": "_owner",
          "type": "address"
        },
        {
          "internalType": "string",
          "name": "_name",
          "type": "string"
        },
        {
          "internalType": "string",
          "name": "_description",
          "type": "string"
        },
        {
          "internalType": "string",
          "name": "_link",
          "type": "string"
        },
        {
          "internalType": "uint256",
          "name": "_goal",
          "type": "uint256"
        },
        {
          "internalType": "string",
          "name": "_imageLink",
          "type": "string"
        },
        {
          "internalType": "string",
          "name": "_startDate",
          "type": "string"
        },
        {
          "internalType": "string",
          "name": "_endDate",
          "type": "string"
        },
        {
          "internalType": "string",
          "name": "_tags",
          "type": "string"
        }
      ],
      "name": "CreateNewCampaign",
      "outputs": [],
      "stateMutability": "nonpayable",
      "type": "function"
    },
    {
      "inputs": [
        {
          "internalType": "uint24",
          "name": "_campaignID",
          "type": "uint24"
        },
        {
          "internalType": "address payable",
          "name": "_contributor",
          "type": "address"
        },
        {
          "internalType": "string",
          "name": "_date",
          "type": "string"
        },
        {
          "internalType": "uint256",
          "name": "_amount",
          "type": "uint256"
        }
      ],
      "name": "ContributeToCampaign",
      "outputs": [],
      "stateMutability": "nonpayable",
      "type": "function"
    },
    {
      "inputs": [
        {
          "internalType": "uint24",
          "name": "_campaignID",
          "type": "uint24"
        }
      ],
      "name": "CloseCampaign",
      "outputs": [],
      "stateMutability": "nonpayable",
      "type": "function"
    },
    {
      "inputs": [],
      "name": "GetNumberOfCampaigns",
      "outputs": [
        {
          "internalType": "uint256",
          "name": "",
          "type": "uint256"
        }
      ],
      "stateMutability": "view",
      "type": "function",
      "constant": true
    },
    {
      "inputs": [
        {
          "internalType": "uint24",
          "name": "_campaignID",
          "type": "uint24"
        }
      ],
      "name": "GetCampaignOwner",
      "outputs": [
        {
          "internalType": "address",
          "name": "",
          "type": "address"
        }
      ],
      "stateMutability": "view",
      "type": "function",
      "constant": true
    },
    {
      "inputs": [
        {
          "internalType": "uint24",
          "name": "_campaignID",
          "type": "uint24"
        }
      ],
      "name": "GetCampaignID",
      "outputs": [
        {
          "internalType": "uint24",
          "name": "",
          "type": "uint24"
        }
      ],
      "stateMutability": "view",
      "type": "function",
      "constant": true
    },
    {
      "inputs": [
        {
          "internalType": "uint24",
          "name": "_campaignID",
          "type": "uint24"
        }
      ],
      "name": "GetCampaignImageLink",
      "outputs": [
        {
          "internalType": "string",
          "name": "",
          "type": "string"
        }
      ],
      "stateMutability": "view",
      "type": "function",
      "constant": true
    },
    {
      "inputs": [
        {
          "internalType": "uint24",
          "name": "_campaignID",
          "type": "uint24"
        }
      ],
      "name": "GetCampaignName",
      "outputs": [
        {
          "internalType": "string",
          "name": "",
          "type": "string"
        }
      ],
      "stateMutability": "view",
      "type": "function",
      "constant": true
    },
    {
      "inputs": [
        {
          "internalType": "uint24",
          "name": "_campaignID",
          "type": "uint24"
        }
      ],
      "name": "GetCampaignDescription",
      "outputs": [
        {
          "internalType": "string",
          "name": "",
          "type": "string"
        }
      ],
      "stateMutability": "view",
      "type": "function",
      "constant": true
    },
    {
      "inputs": [
        {
          "internalType": "uint24",
          "name": "_campaignID",
          "type": "uint24"
        },
        {
          "internalType": "string",
          "name": "_description",
          "type": "string"
        }
      ],
      "name": "SetCampaignDescription",
      "outputs": [],
      "stateMutability": "nonpayable",
      "type": "function"
    },
    {
      "inputs": [
        {
          "internalType": "uint24",
          "name": "_campaignID",
          "type": "uint24"
        }
      ],
      "name": "GetCampaignLink",
      "outputs": [
        {
          "internalType": "string",
          "name": "",
          "type": "string"
        }
      ],
      "stateMutability": "view",
      "type": "function",
      "constant": true
    },
    {
      "inputs": [
        {
          "internalType": "uint24",
          "name": "_campaignID",
          "type": "uint24"
        }
      ],
      "name": "GetCampaignStartDate",
      "outputs": [
        {
          "internalType": "string",
          "name": "",
          "type": "string"
        }
      ],
      "stateMutability": "view",
      "type": "function",
      "constant": true
    },
    {
      "inputs": [
        {
          "internalType": "uint24",
          "name": "_campaignID",
          "type": "uint24"
        }
      ],
      "name": "GetCampaignEndDate",
      "outputs": [
        {
          "internalType": "string",
          "name": "",
          "type": "string"
        }
      ],
      "stateMutability": "view",
      "type": "function",
      "constant": true
    },
    {
      "inputs": [
        {
          "internalType": "uint24",
          "name": "_campaignID",
          "type": "uint24"
        }
      ],
      "name": "GetCampaignTags",
      "outputs": [
        {
          "internalType": "string",
          "name": "",
          "type": "string"
        }
      ],
      "stateMutability": "view",
      "type": "function",
      "constant": true
    },
    {
      "inputs": [
        {
          "internalType": "uint24",
          "name": "_campaignID",
          "type": "uint24"
        }
      ],
      "name": "GetCampaignStatus",
      "outputs": [
        {
          "internalType": "enum Crowdfunding.CampaignStatus",
          "name": "",
          "type": "uint8"
        }
      ],
      "stateMutability": "view",
      "type": "function",
      "constant": true
    },
    {
      "inputs": [
        {
          "internalType": "uint24",
          "name": "_campaignID",
          "type": "uint24"
        }
      ],
      "name": "GetCampaignGoal",
      "outputs": [
        {
          "internalType": "uint256",
          "name": "",
          "type": "uint256"
        }
      ],
      "stateMutability": "view",
      "type": "function",
      "constant": true
    },
    {
      "inputs": [
        {
          "internalType": "uint24",
          "name": "_campaignID",
          "type": "uint24"
        }
      ],
      "name": "GetCampaignMoneyCollected",
      "outputs": [
        {
          "internalType": "uint256",
          "name": "",
          "type": "uint256"
        }
      ],
      "stateMutability": "view",
      "type": "function",
      "constant": true
    },
    {
      "inputs": [
        {
          "internalType": "uint24",
          "name": "_campaignID",
          "type": "uint24"
        }
      ],
      "name": "GetCampaignTotalContributors",
      "outputs": [
        {
          "internalType": "uint24",
          "name": "",
          "type": "uint24"
        }
      ],
      "stateMutability": "view",
      "type": "function",
      "constant": true
    },
    {
      "inputs": [
        {
          "internalType": "uint24",
          "name": "_campaignID",
          "type": "uint24"
        },
        {
          "internalType": "uint24",
          "name": "_index",
          "type": "uint24"
        }
      ],
      "name": "GetCampaignContributor",
      "outputs": [
        {
          "internalType": "address",
          "name": "",
          "type": "address"
        }
      ],
      "stateMutability": "view",
      "type": "function",
      "constant": true
    },
    {
      "inputs": [
        {
          "internalType": "uint24",
          "name": "_campaignID",
          "type": "uint24"
        },
        {
          "internalType": "uint24",
          "name": "_index",
          "type": "uint24"
        }
      ],
      "name": "GetCampaignContributionDate",
      "outputs": [
        {
          "internalType": "string",
          "name": "",
          "type": "string"
        }
      ],
      "stateMutability": "view",
      "type": "function",
      "constant": true
    },
    {
      "inputs": [
        {
          "internalType": "uint24",
          "name": "_campaignID",
          "type": "uint24"
        },
        {
          "internalType": "uint24",
          "name": "_index",
          "type": "uint24"
        }
      ],
      "name": "GetCampaignContributionAmount",
      "outputs": [
        {
          "internalType": "uint256",
          "name": "",
          "type": "uint256"
        }
      ],
      "stateMutability": "view",
      "type": "function",
      "constant": true
    }
  ],
  "bytecode": "0x608060405234801561001057600080fd5b50611fa8806100206000396000f3fe608060405234801561001057600080fd5b50600436106101375760003560e01c80637d53a478116100b8578063bea1e2ea1161007c578063bea1e2ea14610d00578063d1b1f6e914610dac578063d3c342e714610e58578063e9739e0114610ecb578063f5399bf514610f21578063f9b5a13514610f3f57610137565b80637d53a47814610a1c5780638bffa79914610ac8578063a95d34da14610b74578063b397afbd14610c68578063bba50d7614610cb957610137565b8063304992ab116100ff578063304992ab146107625780633c3e27f8146107a95780633ce82a4914610873578063549e6ff2146108c45780636578a4f91461097057610137565b806305293efc1461013c578063071533bb146101915780630b40cebc146102135780631319013914610683578063150e611f146106b6575b600080fd5b61016d6004803603602081101561015257600080fd5b81019080803562ffffff169060200190929190505050610ffa565b6040518082600281111561017d57fe5b60ff16815260200191505060405180910390f35b6101d1600480360360408110156101a757600080fd5b81019080803562ffffff169060200190929190803562ffffff169060200190929190505050611033565b604051808273ffffffffffffffffffffffffffffffffffffffff1673ffffffffffffffffffffffffffffffffffffffff16815260200191505060405180910390f35b610681600480360361012081101561022a57600080fd5b81019080803573ffffffffffffffffffffffffffffffffffffffff1690602001909291908035906020019064010000000081111561026757600080fd5b82018360208201111561027957600080fd5b8035906020019184600183028401116401000000008311171561029b57600080fd5b91908080601f016020809104026020016040519081016040528093929190818152602001838380828437600081840152601f19601f820116905080830192505050505050509192919290803590602001906401000000008111156102fe57600080fd5b82018360208201111561031057600080fd5b8035906020019184600183028401116401000000008311171561033257600080fd5b91908080601f016020809104026020016040519081016040528093929190818152602001838380828437600081840152601f19601f8201169050808301925050505050505091929192908035906020019064010000000081111561039557600080fd5b8201836020820111156103a757600080fd5b803590602001918460018302840111640100000000831117156103c957600080fd5b91908080601f016020809104026020016040519081016040528093929190818152602001838380828437600081840152601f19601f820116905080830192505050505050509192919290803590602001909291908035906020019064010000000081111561043657600080fd5b82018360208201111561044857600080fd5b8035906020019184600183028401116401000000008311171561046a57600080fd5b91908080601f016020809104026020016040519081016040528093929190818152602001838380828437600081840152601f19601f820116905080830192505050505050509192919290803590602001906401000000008111156104cd57600080fd5b8201836020820111156104df57600080fd5b8035906020019184600183028401116401000000008311171561050157600080fd5b91908080601f016020809104026020016040519081016040528093929190818152602001838380828437600081840152601f19601f8201169050808301925050505050505091929192908035906020019064010000000081111561056457600080fd5b82018360208201111561057657600080fd5b8035906020019184600183028401116401000000008311171561059857600080fd5b91908080601f016020809104026020016040519081016040528093929190818152602001838380828437600081840152601f19601f820116905080830192505050505050509192919290803590602001906401000000008111156105fb57600080fd5b82018360208201111561060d57600080fd5b8035906020019184600183028401116401000000008311171561062f57600080fd5b91908080601f016020809104026020016040519081016040528093929190818152602001838380828437600081840152601f19601f82011690508083019250505050505050919291929050505061109e565b005b6106b46004803603602081101561069957600080fd5b81019080803562ffffff16906020019092919050505061130b565b005b6106e7600480360360208110156106cc57600080fd5b81019080803562ffffff169060200190929190505050611353565b6040518080602001828103825283818151815260200191508051906020019080838360005b8381101561072757808201518184015260208101905061070c565b50505050905090810190601f1680156107545780820380516001836020036101000a031916815260200191505b509250505060405180910390f35b6107936004803603602081101561077857600080fd5b81019080803562ffffff169060200190929190505050611418565b6040518082815260200191505060405180910390f35b610871600480360360408110156107bf57600080fd5b81019080803562ffffff169060200190929190803590602001906401000000008111156107eb57600080fd5b8201836020820111156107fd57600080fd5b8035906020019184600183028401116401000000008311171561081f57600080fd5b91908080601f016020809104026020016040519081016040528093929190818152602001838380828437600081840152601f19601f820116905080830192505050505050509192919290505050611444565b005b6108a46004803603602081101561088957600080fd5b81019080803562ffffff169060200190929190505050611480565b604051808262ffffff1662ffffff16815260200191505060405180910390f35b6108f5600480360360208110156108da57600080fd5b81019080803562ffffff1690602001909291905050506114bb565b6040518080602001828103825283818151815260200191508051906020019080838360005b8381101561093557808201518184015260208101905061091a565b50505050905090810190601f1680156109625780820380516001836020036101000a031916815260200191505b509250505060405180910390f35b6109a16004803603602081101561098657600080fd5b81019080803562ffffff169060200190929190505050611580565b6040518080602001828103825283818151815260200191508051906020019080838360005b838110156109e15780820151818401526020810190506109c6565b50505050905090810190601f168015610a0e5780820380516001836020036101000a031916815260200191505b509250505060405180910390f35b610a4d60048036036020811015610a3257600080fd5b81019080803562ffffff169060200190929190505050611645565b6040518080602001828103825283818151815260200191508051906020019080838360005b83811015610a8d578082015181840152602081019050610a72565b50505050905090810190601f168015610aba5780820380516001836020036101000a031916815260200191505b509250505060405180910390f35b610af960048036036020811015610ade57600080fd5b81019080803562ffffff16906020019092919050505061170a565b6040518080602001828103825283818151815260200191508051906020019080838360005b83811015610b39578082015181840152602081019050610b1e565b50505050905090810190601f168015610b665780820380516001836020036101000a031916815260200191505b509250505060405180910390f35b610c6660048036036080811015610b8a57600080fd5b81019080803562ffffff169060200190929190803573ffffffffffffffffffffffffffffffffffffffff16906020019092919080359060200190640100000000811115610bd657600080fd5b820183602082011115610be857600080fd5b80359060200191846001830284011164010000000083111715610c0a57600080fd5b91908080601f016020809104026020016040519081016040528093929190818152602001838380828437600081840152601f19601f820116905080830192505050505050509192919290803590602001909291905050506117cf565b005b610c9960048036036020811015610c7e57600080fd5b81019080803562ffffff169060200190929190505050611a0b565b604051808262ffffff1662ffffff16815260200191505060405180910390f35b610cea60048036036020811015610ccf57600080fd5b81019080803562ffffff169060200190929190505050611a46565b6040518082815260200191505060405180910390f35b610d3160048036036020811015610d1657600080fd5b81019080803562ffffff169060200190929190505050611a72565b6040518080602001828103825283818151815260200191508051906020019080838360005b83811015610d71578082015181840152602081019050610d56565b50505050905090810190601f168015610d9e5780820380516001836020036101000a031916815260200191505b509250505060405180910390f35b610ddd60048036036020811015610dc257600080fd5b81019080803562ffffff169060200190929190505050611b37565b6040518080602001828103825283818151815260200191508051906020019080838360005b83811015610e1d578082015181840152602081019050610e02565b50505050905090810190601f168015610e4a5780820380516001836020036101000a031916815260200191505b509250505060405180910390f35b610e8960048036036020811015610e6e57600080fd5b81019080803562ffffff169060200190929190505050611bfc565b604051808273ffffffffffffffffffffffffffffffffffffffff1673ffffffffffffffffffffffffffffffffffffffff16815260200191505060405180910390f35b610f0b60048036036040811015610ee157600080fd5b81019080803562ffffff169060200190929190803562ffffff169060200190929190505050611c48565b6040518082815260200191505060405180910390f35b610f29611c93565b6040518082815260200191505060405180910390f35b610f7f60048036036040811015610f5557600080fd5b81019080803562ffffff169060200190929190803562ffffff169060200190929190505050611c9f565b6040518080602001828103825283818151815260200191508051906020019080838360005b83811015610fbf578082015181840152602081019050610fa4565b50505050905090810190601f168015610fec5780820380516001836020036101000a031916815260200191505b509250505060405180910390f35b6000808262ffffff168154811061100d57fe5b90600052602060002090600d020160090160009054906101000a900460ff169050919050565b6000808362ffffff168154811061104657fe5b90600052602060002090600d0201600c0160008362ffffff1662ffffff16815260200190815260200160002060000160009054906101000a900473ffffffffffffffffffffffffffffffffffffffff16905092915050565b6110a6611d83565b604051806101a0016040528060008054905062ffffff1681526020018b73ffffffffffffffffffffffffffffffffffffffff1681526020018a81526020018981526020018881526020018781526020018681526020018581526020018481526020018381526020016000600281111561111b57fe5b815260200160008152602001600062ffffff16815250905060008190806001815401808255809150506001900390600052602060002090600d020160009091909190915060008201518160000160006101000a81548162ffffff021916908362ffffff16021790555060208201518160000160036101000a81548173ffffffffffffffffffffffffffffffffffffffff021916908373ffffffffffffffffffffffffffffffffffffffff16021790555060408201518160010190805190602001906111e7929190611e16565b506060820151816002019080519060200190611204929190611e16565b506080820151816003019080519060200190611221929190611e16565b5060a0820151816004015560c0820151816005019080519060200190611248929190611e16565b5060e0820151816006019080519060200190611265929190611e16565b50610100820151816007019080519060200190611283929190611e16565b506101208201518160080190805190602001906112a1929190611e16565b506101408201518160090160006101000a81548160ff021916908360028111156112c757fe5b021790555061016082015181600a015561018082015181600b0160006101000a81548162ffffff021916908362ffffff160217905550505050505050505050505050565b600260008262ffffff168154811061131f57fe5b90600052602060002090600d020160090160006101000a81548160ff0219169083600281111561134b57fe5b021790555050565b606060008262ffffff168154811061136757fe5b90600052602060002090600d02016008018054600181600116156101000203166002900480601f01602080910402602001604051908101604052809291908181526020018280546001816001161561010002031660029004801561140c5780601f106113e15761010080835404028352916020019161140c565b820191906000526020600020905b8154815290600101906020018083116113ef57829003601f168201915b50505050509050919050565b6000808262ffffff168154811061142b57fe5b90600052602060002090600d0201600401549050919050565b8060008362ffffff168154811061145757fe5b90600052602060002090600d0201600201908051906020019061147b929190611e96565b505050565b6000808262ffffff168154811061149357fe5b90600052602060002090600d020160000160009054906101000a900462ffffff169050919050565b606060008262ffffff16815481106114cf57fe5b90600052602060002090600d02016002018054600181600116156101000203166002900480601f0160208091040260200160405190810160405280929190818152602001828054600181600116156101000203166002900480156115745780601f1061154957610100808354040283529160200191611574565b820191906000526020600020905b81548152906001019060200180831161155757829003601f168201915b50505050509050919050565b606060008262ffffff168154811061159457fe5b90600052602060002090600d02016006018054600181600116156101000203166002900480601f0160208091040260200160405190810160405280929190818152602001828054600181600116156101000203166002900480156116395780601f1061160e57610100808354040283529160200191611639565b820191906000526020600020905b81548152906001019060200180831161161c57829003601f168201915b50505050509050919050565b606060008262ffffff168154811061165957fe5b90600052602060002090600d02016001018054600181600116156101000203166002900480601f0160208091040260200160405190810160405280929190818152602001828054600181600116156101000203166002900480156116fe5780601f106116d3576101008083540402835291602001916116fe565b820191906000526020600020905b8154815290600101906020018083116116e157829003601f168201915b50505050509050919050565b606060008262ffffff168154811061171e57fe5b90600052602060002090600d02016005018054600181600116156101000203166002900480601f0160208091040260200160405190810160405280929190818152602001828054600181600116156101000203166002900480156117c35780601f10611798576101008083540402835291602001916117c3565b820191906000526020600020905b8154815290600101906020018083116117a657829003601f168201915b50505050509050919050565b6117d7611f16565b60405180606001604052808573ffffffffffffffffffffffffffffffffffffffff1681526020018481526020018381525090508060008662ffffff168154811061181d57fe5b90600052602060002090600d0201600c016000808862ffffff168154811061184157fe5b90600052602060002090600d0201600b0160009054906101000a900462ffffff1662ffffff1662ffffff16815260200190815260200160002060008201518160000160006101000a81548173ffffffffffffffffffffffffffffffffffffffff021916908373ffffffffffffffffffffffffffffffffffffffff16021790555060208201518160010190805190602001906118dd929190611e16565b5060408201518160020155905050600160008662ffffff16815481106118ff57fe5b90600052602060002090600d0201600b0160008282829054906101000a900462ffffff160192506101000a81548162ffffff021916908362ffffff1602179055508160008662ffffff168154811061195357fe5b90600052602060002090600d0201600a016000828254019250508190555060008562ffffff168154811061198357fe5b90600052602060002090600d02016004015460008662ffffff16815481106119a757fe5b90600052602060002090600d0201600a015410611a0457600160008662ffffff16815481106119d257fe5b90600052602060002090600d020160090160006101000a81548160ff021916908360028111156119fe57fe5b02179055505b5050505050565b6000808262ffffff1681548110611a1e57fe5b90600052602060002090600d0201600b0160009054906101000a900462ffffff169050919050565b6000808262ffffff1681548110611a5957fe5b90600052602060002090600d0201600a01549050919050565b606060008262ffffff1681548110611a8657fe5b90600052602060002090600d02016007018054600181600116156101000203166002900480601f016020809104026020016040519081016040528092919081815260200182805460018160011615610100020316600290048015611b2b5780601f10611b0057610100808354040283529160200191611b2b565b820191906000526020600020905b815481529060010190602001808311611b0e57829003601f168201915b50505050509050919050565b606060008262ffffff1681548110611b4b57fe5b90600052602060002090600d02016003018054600181600116156101000203166002900480601f016020809104026020016040519081016040528092919081815260200182805460018160011615610100020316600290048015611bf05780601f10611bc557610100808354040283529160200191611bf0565b820191906000526020600020905b815481529060010190602001808311611bd357829003601f168201915b50505050509050919050565b6000808262ffffff1681548110611c0f57fe5b90600052602060002090600d020160000160039054906101000a900473ffffffffffffffffffffffffffffffffffffffff169050919050565b6000808362ffffff1681548110611c5b57fe5b90600052602060002090600d0201600c0160008362ffffff1662ffffff16815260200190815260200160002060020154905092915050565b60008080549050905090565b606060008362ffffff1681548110611cb357fe5b90600052602060002090600d0201600c0160008362ffffff1662ffffff1681526020019081526020016000206001018054600181600116156101000203166002900480601f016020809104026020016040519081016040528092919081815260200182805460018160011615610100020316600290048015611d765780601f10611d4b57610100808354040283529160200191611d76565b820191906000526020600020905b815481529060010190602001808311611d5957829003601f168201915b5050505050905092915050565b604051806101a00160405280600062ffffff168152602001600073ffffffffffffffffffffffffffffffffffffffff168152602001606081526020016060815260200160608152602001600081526020016060815260200160608152602001606081526020016060815260200160006002811115611dfd57fe5b815260200160008152602001600062ffffff1681525090565b828054600181600116156101000203166002900490600052602060002090601f016020900481019282601f10611e5757805160ff1916838001178555611e85565b82800160010185558215611e85579182015b82811115611e84578251825591602001919060010190611e69565b5b509050611e929190611f4d565b5090565b828054600181600116156101000203166002900490600052602060002090601f016020900481019282601f10611ed757805160ff1916838001178555611f05565b82800160010185558215611f05579182015b82811115611f04578251825591602001919060010190611ee9565b5b509050611f129190611f4d565b5090565b6040518060600160405280600073ffffffffffffffffffffffffffffffffffffffff16815260200160608152602001600081525090565b611f6f91905b80821115611f6b576000816000905550600101611f53565b5090565b9056fea2646970667358221220402460f4b7c1d4d5ce8b87d8cbb500da0643a791002201a8aac3cbc8023b597f64736f6c63430006020033",
  "source": "pragma solidity ^0.6.1;\r\n\r\ncontract Crowdfunding\r\n{\r\n    enum CampaignStatus\r\n    {\r\n        Open,\r\n        GoalAchieved,\r\n        Closed\r\n    }\r\n    \r\n    Campaign[] ListOfCampaigns;\r\n\r\n    constructor() public\r\n    {\r\n        /*\r\n        CreateNewCampaign(0xAd6d6717a14a1F7fE8DF380220912fC96Be1F691,\r\n                        \"Ngn hng tranh The Bank 2\",\r\n                        \"The Bank l ngn hng tranh tr em trc tuyn u tin v duy nht ti Vit Nam (cho n thi im hin ti). Chng ti tp hp, trng by v gii thiu tranh v ca cc em nh  khp mi ni, khng phn bit quc gia, dn tc hay hon cnh.\",\r\n                        \"http://tohebank.com/painting\",\r\n                        1000000,\r\n                        \"http://tohebank.com/admin//uploads/news/1480251170PWN_7398-3.jpg\",\r\n                        \"01/01/2020\",\r\n                        \"01/19/2020\",\r\n                        \"tu thien, tre em\");\r\n        ContributeToCampaign(0, 0xAd6d6717a14a1F7fE8DF380220912fC96Be1F691, 'today test', 20000);\r\n        CreateNewCampaign(0xBf3d2b9AB49c87aa82D8D0babA193C7520aABE12,\r\n                        \"Ngn hng tranh The Bank 1\",\r\n                        \"The Bank l ngn hng tranh tr em trc tuyn u tin v duy nht ti Vit Nam (cho n thi im hin ti). Chng ti tp hp, trng by v gii thiu tranh v ca cc em nh  khp mi ni, khng phn bit quc gia, dn tc hay hon cnh.\",\r\n                        \"http://tohebank.com/painting\",\r\n                        1000000,\r\n                        \"http://tohebank.com/admin//uploads/news/1480251170PWN_7398-3.jpg\",\r\n                        \"01/01/2020\",\r\n                        \"01/19/2020\",\r\n                        \"tu thien, tre em\");\r\n        CreateNewCampaign(0xBf3d2b9AB49c87aa82D8D0babA193C7520aABE12,\r\n                        \"Ngn hng tranh The Bank\",\r\n                        \"The Bank l ngn hng tranh tr em trc tuyn u tin v duy nht ti Vit Nam (cho n thi im hin ti). Chng ti tp hp, trng by v gii thiu tranh v ca cc em nh  khp mi ni, khng phn bit quc gia, dn tc hay hon cnh.\",\r\n                        \"http://tohebank.com/painting\",\r\n                        1000000,\r\n                        \"http://tohebank.com/admin//uploads/news/1480251170PWN_7398-3.jpg\",\r\n                        \"01/01/2020\",\r\n                        \"01/19/2020\",\r\n                        \"tu thien, tre em\");\r\n        CreateNewCampaign(0xfD2A82d9C0e373Ba6a8A8689741a7Fc433d5861F,\r\n                        \"Student Grow - Cng ng h tr sinh vin UIT\",\r\n                        \"Cc chng trnh o to ca Trng c thit k p ng tt nhu cu hc tp, nghin cu a dng ca ngi hc v cung cp ngun nhn lc cht lng cao theo yu cu ca x hi v lnh vc CNTT&TT theo cc cp  t bc o to i hc n sau i hc (bao gm thc s v tin s). Trng c 17 chng trnh chnh quy o to bc k s v c nhn. Bn cnh , l mt trong 08 trng trng im v o to ngnh An ton Thng tin ca Vit Nam v p ng cc nhu cu c bit ca x hi, Trng c 07 chng trnh o to c bit (h chnh quy) cc ngnh: k s ti nng ngnh An ton Thng tin, chng trnh tin tin ngnh H thng Thng tin, c nhn ti nng ngnh Khoa hc My tnh v.v bc o to sau i hc, c 03 chng trnh o to trnh  thc s (ngnh khoa hc my tnh, cng ngh thng tin va h thng thng tin) v 02 chng trnh o to trnh  tin s (ngnh khoa hc my tnh v cng ngh thng tin). Thng qua cc chng trnh o to tin tin, CNTT c ng dng mnh m trong qu trnh t chc o to, thay i ni dung, phng php ging dy theo hng hin i v bm st cc yu cu ca thc tin, ng thi tng cng kh nng s dng ting Anh cho ngi hc. Tng s sinh vin, hc vin cao hc v nghin cu sinh hin nay ca Trng l hn 6.000.\",\r\n                        \"https://www.uit.edu.vn/\",\r\n                        35000000,\r\n                        \"https://scontent.fsgn5-5.fna.fbcdn.net/v/t31.0-8/13221300_1083224231719576_2757809742062362212_o.jpg?_nc_cat=100&_nc_ohc=UnNSxQd9Y00AQnrja3lUaSCVeYoJdsdL94iHBRwrghOPUmq7d1mjABcKA&_nc_ht=scontent.fsgn5-5.fna&oh=6f5472b4d447541e8ba4c7dbc87d70b5&oe=5E9D1174\",\r\n                        \"01/01/2020\",\r\n                        \"01/20/2020\",\r\n                        \" tng, sinh vin, d n cng ngh, UIT\");\r\n        CreateNewCampaign(0xfD2A82d9C0e373Ba6a8A8689741a7Fc433d5861F,\r\n                        \"VNPhoto - Cuc thi chp nh p Vit Nam\",\r\n                        \"Hy cng gip  nhng nhip nh gia c c nhng tm hnh p nht v qu hng t nc Vit Nam.\",\r\n                        \"https://www.uit.edu.vn/\",\r\n                        2000000,\r\n                        \"https://images.unsplash.com/photo-1521019795854-14e15f600980?ixlib=rb-1.2.1&ixid=eyJhcHBfaWQiOjEyMDd9&auto=format\",\r\n                        \"01/01/2020\",\r\n                        \"01/21/2020\",\r\n                        \"t nc, qu hng, nh ngh thut\");\r\n        CreateNewCampaign(0xfD2A82d9C0e373Ba6a8A8689741a7Fc433d5861F,\r\n                        \"Chin dch Tt sum vy\",\r\n                        \"Cng chung tay ng h cc tr em ngho  cc em c th khm ph ngy Tt truyn thng v nhng hot ng th v trong ngy l ny.\",\r\n                        \"https://tuoitre.vn/hoat-dong-thien-nguyen-tet-tre-em-tai-le-hoi-tet-viet-2020-20200105091519287.htm\",\r\n                        7000000,\r\n                        \"https://images.pexels.com/photos/1212805/pexels-photo-1212805.jpeg?auto=compress&cs=tinysrgb&dpr=2&h=650&w=940\",\r\n                        \"01/17/2020\",\r\n                        \"02/15/2020\",\r\n                        \"Tt, l hi, tr em\");\r\n        */\r\n    }\r\n\r\n    struct Campaign\r\n    {\r\n        uint24 ID;\r\n        address payable owner;\r\n        string name;\r\n        string description;\r\n        string link;\r\n        uint goal;\r\n        string imageLink;\r\n        string startDate;\r\n        string endDate;\r\n        string tags;\r\n        CampaignStatus status;\r\n        uint moneyCollected;\r\n        uint24 totalContributors;\r\n        mapping (uint24 => Contributor) contributors;\r\n    }\r\n\r\n    struct Contributor\r\n    {\r\n        address payable contributor;\r\n        string date;\r\n        uint amount;\r\n    }\r\n    \r\n    function CreateNewCampaign\r\n    (\r\n        address payable _owner,\r\n        string memory _name,\r\n        string memory _description,\r\n        string memory _link,\r\n        uint _goal,\r\n        string memory _imageLink,\r\n        string memory _startDate,\r\n        string memory _endDate,\r\n        string memory _tags\r\n    ) public\r\n    {\r\n        Campaign memory newCampaign = Campaign({\r\n                                                ID: uint24(ListOfCampaigns.length),\r\n                                                owner: _owner,\r\n                                                name: _name,\r\n                                                description: _description,\r\n                                                link: _link,\r\n                                                goal: _goal,\r\n                                                imageLink: _imageLink,\r\n                                                startDate: _startDate,\r\n                                                endDate: _endDate,\r\n                                                tags: _tags,\r\n                                                status: CampaignStatus.Open,\r\n                                                moneyCollected: 0,\r\n                                                totalContributors: 0\r\n                                            });\r\n\r\n        ListOfCampaigns.push(newCampaign);\r\n    }\r\n    \r\n    function ContributeToCampaign\r\n    (\r\n        uint24 _campaignID,\r\n        address payable _contributor,\r\n        string memory _date,\r\n        uint _amount\r\n    ) public\r\n    {\r\n        Contributor memory newContributor = Contributor({\r\n                                                            contributor: _contributor,\r\n                                                            date: _date,\r\n                                                            amount: _amount\r\n                                                        });\r\n                                                        \r\n        // add a new contribution record to the project's contributor list\r\n        ListOfCampaigns[_campaignID].contributors[uint24(ListOfCampaigns[_campaignID].totalContributors)] = newContributor;\r\n        ListOfCampaigns[_campaignID].totalContributors += 1;\r\n        \r\n        // Update the total money funded\r\n        ListOfCampaigns[_campaignID].moneyCollected += _amount;\r\n        if (ListOfCampaigns[_campaignID].moneyCollected >= ListOfCampaigns[_campaignID].goal)\r\n        {\r\n            ListOfCampaigns[_campaignID].status = CampaignStatus.GoalAchieved;\r\n        }\r\n    }\r\n    \r\n    function CloseCampaign(uint24 _campaignID) public\r\n    {\r\n        ListOfCampaigns[_campaignID].status = CampaignStatus.Closed;\r\n    }\r\n    \r\n    function GetNumberOfCampaigns() public view returns (uint)\r\n    {\r\n        return ListOfCampaigns.length;\r\n    }\r\n    \r\n    function GetCampaignOwner(uint24 _campaignID) public view returns (address)\r\n    {\r\n        return ListOfCampaigns[_campaignID].owner;\r\n    }\r\n    \r\n    function GetCampaignID(uint24 _campaignID) public view returns (uint24)\r\n    {\r\n        return ListOfCampaigns[_campaignID].ID;\r\n    }\r\n    \r\n    function GetCampaignImageLink(uint24 _campaignID) public view returns (string memory)\r\n    {\r\n        return ListOfCampaigns[_campaignID].imageLink;\r\n    }\r\n    \r\n    function GetCampaignName(uint24 _campaignID) public view returns (string memory)\r\n    {\r\n        return ListOfCampaigns[_campaignID].name;\r\n    }\r\n    \r\n    function GetCampaignDescription(uint24 _campaignID) public view returns (string memory)\r\n    {\r\n        return ListOfCampaigns[_campaignID].description;\r\n    }\r\n    \r\n    function SetCampaignDescription(uint24 _campaignID, string memory _description) public\r\n    {\r\n        ListOfCampaigns[_campaignID].description = _description;\r\n    }\r\n    \r\n    function GetCampaignLink(uint24 _campaignID) public view returns (string memory)\r\n    {\r\n        return ListOfCampaigns[_campaignID].link;\r\n    }\r\n    \r\n    function GetCampaignStartDate(uint24 _campaignID) public view returns (string memory)\r\n    {\r\n        return ListOfCampaigns[_campaignID].startDate;\r\n    }\r\n    \r\n    function GetCampaignEndDate(uint24 _campaignID) public view returns (string memory)\r\n    {\r\n        return ListOfCampaigns[_campaignID].endDate;\r\n    }\r\n    \r\n    function GetCampaignTags(uint24 _campaignID) public view returns (string memory)\r\n    {\r\n        return ListOfCampaigns[_campaignID].tags;\r\n    }\r\n    \r\n    function GetCampaignStatus(uint24 _campaignID) public view returns (CampaignStatus)\r\n    {\r\n        return ListOfCampaigns[_campaignID].status;\r\n    }\r\n    \r\n    function GetCampaignGoal(uint24 _campaignID) public view returns (uint)\r\n    {\r\n        return ListOfCampaigns[_campaignID].goal;\r\n    }\r\n    \r\n    function GetCampaignMoneyCollected(uint24 _campaignID) public view returns (uint)\r\n    {\r\n        return ListOfCampaigns[_campaignID].moneyCollected;\r\n    }\r\n    \r\n    function GetCampaignTotalContributors(uint24 _campaignID) public view returns (uint24)\r\n    {\r\n        return ListOfCampaigns[_campaignID].totalContributors;\r\n    }\r\n    \r\n    function GetCampaignContributor(uint24 _campaignID, uint24 _index) public view returns (address)\r\n    {\r\n        return ListOfCampaigns[_campaignID].contributors[_index].contributor;\r\n    }\r\n    \r\n    function GetCampaignContributionDate(uint24 _campaignID, uint24 _index) public view returns (string memory)\r\n    {\r\n        return ListOfCampaigns[_campaignID].contributors[_index].date;\r\n    }\r\n    \r\n    function GetCampaignContributionAmount(uint24 _campaignID, uint24 _index) public view returns (uint)\r\n    {\r\n        return ListOfCampaigns[_campaignID].contributors[_index].amount;\r\n    }\r\n}",
  "sourcePath": "D:/Project/UIT-graduation-thesis-Crowdfunding-project/contracts/Crowdfunding.sol",
  "compiler": {
    "name": "solc",
    "version": "0.6.2+commit.bacdbe57.Emscripten.clang"
  },
  "schemaVersion": "3.0.22",
  "updatedAt": "2020-01-29T09:51:28.380Z",
  "networkType": "ethereum",
  "devdoc": {
    "methods": {}
  },
  "userdoc": {
    "methods": {}
  }
}