{
  "contractName": "Crowdfunding",
  "abi": [
    {
      "inputs": [],
      "stateMutability": "nonpayable",
      "type": "constructor"
    },
    {
      "inputs": [
        {
          "internalType": "address payable",
          "name": "_owner",
          "type": "address"
        },
        {
          "internalType": "string",
          "name": "_name",
          "type": "string"
        },
        {
          "internalType": "string",
          "name": "_description",
          "type": "string"
        },
        {
          "internalType": "string",
          "name": "_link",
          "type": "string"
        },
        {
          "internalType": "uint256",
          "name": "_goal",
          "type": "uint256"
        },
        {
          "internalType": "string",
          "name": "_imageLink",
          "type": "string"
        },
        {
          "internalType": "string",
          "name": "_startDate",
          "type": "string"
        },
        {
          "internalType": "string",
          "name": "_endDate",
          "type": "string"
        },
        {
          "internalType": "string",
          "name": "_tags",
          "type": "string"
        }
      ],
      "name": "CreateNewCampaign",
      "outputs": [],
      "stateMutability": "nonpayable",
      "type": "function"
    },
    {
      "inputs": [
        {
          "internalType": "uint24",
          "name": "_campaignID",
          "type": "uint24"
        },
        {
          "internalType": "address payable",
          "name": "_contributor",
          "type": "address"
        },
        {
          "internalType": "string",
          "name": "_date",
          "type": "string"
        },
        {
          "internalType": "uint256",
          "name": "_amount",
          "type": "uint256"
        }
      ],
      "name": "ContributeToCampaign",
      "outputs": [],
      "stateMutability": "nonpayable",
      "type": "function"
    },
    {
      "inputs": [],
      "name": "GetContractBalance",
      "outputs": [
        {
          "internalType": "uint256",
          "name": "",
          "type": "uint256"
        }
      ],
      "stateMutability": "view",
      "type": "function",
      "constant": true
    },
    {
      "inputs": [
        {
          "internalType": "uint24",
          "name": "_campaignID",
          "type": "uint24"
        }
      ],
      "name": "CloseCampaign",
      "outputs": [],
      "stateMutability": "nonpayable",
      "type": "function"
    },
    {
      "inputs": [],
      "name": "GetNumberOfCampaigns",
      "outputs": [
        {
          "internalType": "uint256",
          "name": "",
          "type": "uint256"
        }
      ],
      "stateMutability": "view",
      "type": "function",
      "constant": true
    },
    {
      "inputs": [
        {
          "internalType": "uint24",
          "name": "_campaignID",
          "type": "uint24"
        }
      ],
      "name": "GetCampaignOwner",
      "outputs": [
        {
          "internalType": "address",
          "name": "",
          "type": "address"
        }
      ],
      "stateMutability": "view",
      "type": "function",
      "constant": true
    },
    {
      "inputs": [
        {
          "internalType": "uint24",
          "name": "_campaignID",
          "type": "uint24"
        }
      ],
      "name": "GetCampaignID",
      "outputs": [
        {
          "internalType": "uint24",
          "name": "",
          "type": "uint24"
        }
      ],
      "stateMutability": "view",
      "type": "function",
      "constant": true
    },
    {
      "inputs": [
        {
          "internalType": "uint24",
          "name": "_campaignID",
          "type": "uint24"
        }
      ],
      "name": "GetCampaignImageLink",
      "outputs": [
        {
          "internalType": "string",
          "name": "",
          "type": "string"
        }
      ],
      "stateMutability": "view",
      "type": "function",
      "constant": true
    },
    {
      "inputs": [
        {
          "internalType": "uint24",
          "name": "_campaignID",
          "type": "uint24"
        }
      ],
      "name": "GetCampaignName",
      "outputs": [
        {
          "internalType": "string",
          "name": "",
          "type": "string"
        }
      ],
      "stateMutability": "view",
      "type": "function",
      "constant": true
    },
    {
      "inputs": [
        {
          "internalType": "uint24",
          "name": "_campaignID",
          "type": "uint24"
        }
      ],
      "name": "GetCampaignDescription",
      "outputs": [
        {
          "internalType": "string",
          "name": "",
          "type": "string"
        }
      ],
      "stateMutability": "view",
      "type": "function",
      "constant": true
    },
    {
      "inputs": [
        {
          "internalType": "uint24",
          "name": "_campaignID",
          "type": "uint24"
        },
        {
          "internalType": "string",
          "name": "_description",
          "type": "string"
        }
      ],
      "name": "SetCampaignDescription",
      "outputs": [],
      "stateMutability": "nonpayable",
      "type": "function"
    },
    {
      "inputs": [
        {
          "internalType": "uint24",
          "name": "_campaignID",
          "type": "uint24"
        }
      ],
      "name": "GetCampaignLink",
      "outputs": [
        {
          "internalType": "string",
          "name": "",
          "type": "string"
        }
      ],
      "stateMutability": "view",
      "type": "function",
      "constant": true
    },
    {
      "inputs": [
        {
          "internalType": "uint24",
          "name": "_campaignID",
          "type": "uint24"
        }
      ],
      "name": "GetCampaignStartDate",
      "outputs": [
        {
          "internalType": "string",
          "name": "",
          "type": "string"
        }
      ],
      "stateMutability": "view",
      "type": "function",
      "constant": true
    },
    {
      "inputs": [
        {
          "internalType": "uint24",
          "name": "_campaignID",
          "type": "uint24"
        }
      ],
      "name": "GetCampaignEndDate",
      "outputs": [
        {
          "internalType": "string",
          "name": "",
          "type": "string"
        }
      ],
      "stateMutability": "view",
      "type": "function",
      "constant": true
    },
    {
      "inputs": [
        {
          "internalType": "uint24",
          "name": "_campaignID",
          "type": "uint24"
        }
      ],
      "name": "GetCampaignTags",
      "outputs": [
        {
          "internalType": "string",
          "name": "",
          "type": "string"
        }
      ],
      "stateMutability": "view",
      "type": "function",
      "constant": true
    },
    {
      "inputs": [
        {
          "internalType": "uint24",
          "name": "_campaignID",
          "type": "uint24"
        }
      ],
      "name": "GetCampaignStatus",
      "outputs": [
        {
          "internalType": "enum Crowdfunding.CampaignStatus",
          "name": "",
          "type": "uint8"
        }
      ],
      "stateMutability": "view",
      "type": "function",
      "constant": true
    },
    {
      "inputs": [
        {
          "internalType": "uint24",
          "name": "_campaignID",
          "type": "uint24"
        }
      ],
      "name": "GetCampaignGoal",
      "outputs": [
        {
          "internalType": "uint256",
          "name": "",
          "type": "uint256"
        }
      ],
      "stateMutability": "view",
      "type": "function",
      "constant": true
    },
    {
      "inputs": [
        {
          "internalType": "uint24",
          "name": "_campaignID",
          "type": "uint24"
        }
      ],
      "name": "GetCampaignMoneyCollected",
      "outputs": [
        {
          "internalType": "uint256",
          "name": "",
          "type": "uint256"
        }
      ],
      "stateMutability": "view",
      "type": "function",
      "constant": true
    },
    {
      "inputs": [
        {
          "internalType": "uint24",
          "name": "_campaignID",
          "type": "uint24"
        }
      ],
      "name": "GetCampaignTotalContributors",
      "outputs": [
        {
          "internalType": "uint24",
          "name": "",
          "type": "uint24"
        }
      ],
      "stateMutability": "view",
      "type": "function",
      "constant": true
    },
    {
      "inputs": [
        {
          "internalType": "uint24",
          "name": "_campaignID",
          "type": "uint24"
        },
        {
          "internalType": "uint24",
          "name": "_index",
          "type": "uint24"
        }
      ],
      "name": "GetCampaignContributor",
      "outputs": [
        {
          "internalType": "address",
          "name": "",
          "type": "address"
        }
      ],
      "stateMutability": "view",
      "type": "function",
      "constant": true
    },
    {
      "inputs": [
        {
          "internalType": "uint24",
          "name": "_campaignID",
          "type": "uint24"
        },
        {
          "internalType": "uint24",
          "name": "_index",
          "type": "uint24"
        }
      ],
      "name": "GetCampaignContributionDate",
      "outputs": [
        {
          "internalType": "string",
          "name": "",
          "type": "string"
        }
      ],
      "stateMutability": "view",
      "type": "function",
      "constant": true
    },
    {
      "inputs": [
        {
          "internalType": "uint24",
          "name": "_campaignID",
          "type": "uint24"
        },
        {
          "internalType": "uint24",
          "name": "_index",
          "type": "uint24"
        }
      ],
      "name": "GetCampaignContributionAmount",
      "outputs": [
        {
          "internalType": "uint256",
          "name": "",
          "type": "uint256"
        }
      ],
      "stateMutability": "view",
      "type": "function",
      "constant": true
    }
  ],
  "bytecode": "0x608060405234801561001057600080fd5b50611fd9806100206000396000f3fe608060405234801561001057600080fd5b50600436106101425760003560e01c80638bffa799116100b8578063d1b1f6e91161007c578063d1b1f6e914610db7578063d3c342e714610e63578063e9739e0114610ed6578063f5399bf514610f2c578063f6d0bf2f14610f4a578063f9b5a13514610f6857610142565b80638bffa79914610ad3578063a95d34da14610b7f578063b397afbd14610c73578063bba50d7614610cc4578063bea1e2ea14610d0b57610142565b8063304992ab1161010a578063304992ab1461076d5780633c3e27f8146107b45780633ce82a491461087e578063549e6ff2146108cf5780636578a4f91461097b5780637d53a47814610a2757610142565b806305293efc14610147578063071533bb1461019c5780630b40cebc1461021e578063131901391461068e578063150e611f146106c1575b600080fd5b6101786004803603602081101561015d57600080fd5b81019080803562ffffff169060200190929190505050611023565b6040518082600281111561018857fe5b60ff16815260200191505060405180910390f35b6101dc600480360360408110156101b257600080fd5b81019080803562ffffff169060200190929190803562ffffff16906020019092919050505061105c565b604051808273ffffffffffffffffffffffffffffffffffffffff1673ffffffffffffffffffffffffffffffffffffffff16815260200191505060405180910390f35b61068c600480360361012081101561023557600080fd5b81019080803573ffffffffffffffffffffffffffffffffffffffff1690602001909291908035906020019064010000000081111561027257600080fd5b82018360208201111561028457600080fd5b803590602001918460018302840111640100000000831117156102a657600080fd5b91908080601f016020809104026020016040519081016040528093929190818152602001838380828437600081840152601f19601f8201169050808301925050505050505091929192908035906020019064010000000081111561030957600080fd5b82018360208201111561031b57600080fd5b8035906020019184600183028401116401000000008311171561033d57600080fd5b91908080601f016020809104026020016040519081016040528093929190818152602001838380828437600081840152601f19601f820116905080830192505050505050509192919290803590602001906401000000008111156103a057600080fd5b8201836020820111156103b257600080fd5b803590602001918460018302840111640100000000831117156103d457600080fd5b91908080601f016020809104026020016040519081016040528093929190818152602001838380828437600081840152601f19601f820116905080830192505050505050509192919290803590602001909291908035906020019064010000000081111561044157600080fd5b82018360208201111561045357600080fd5b8035906020019184600183028401116401000000008311171561047557600080fd5b91908080601f016020809104026020016040519081016040528093929190818152602001838380828437600081840152601f19601f820116905080830192505050505050509192919290803590602001906401000000008111156104d857600080fd5b8201836020820111156104ea57600080fd5b8035906020019184600183028401116401000000008311171561050c57600080fd5b91908080601f016020809104026020016040519081016040528093929190818152602001838380828437600081840152601f19601f8201169050808301925050505050505091929192908035906020019064010000000081111561056f57600080fd5b82018360208201111561058157600080fd5b803590602001918460018302840111640100000000831117156105a357600080fd5b91908080601f016020809104026020016040519081016040528093929190818152602001838380828437600081840152601f19601f8201169050808301925050505050505091929192908035906020019064010000000081111561060657600080fd5b82018360208201111561061857600080fd5b8035906020019184600183028401116401000000008311171561063a57600080fd5b91908080601f016020809104026020016040519081016040528093929190818152602001838380828437600081840152601f19601f8201169050808301925050505050505091929192905050506110c7565b005b6106bf600480360360208110156106a457600080fd5b81019080803562ffffff169060200190929190505050611334565b005b6106f2600480360360208110156106d757600080fd5b81019080803562ffffff16906020019092919050505061137c565b6040518080602001828103825283818151815260200191508051906020019080838360005b83811015610732578082015181840152602081019050610717565b50505050905090810190601f16801561075f5780820380516001836020036101000a031916815260200191505b509250505060405180910390f35b61079e6004803603602081101561078357600080fd5b81019080803562ffffff169060200190929190505050611441565b6040518082815260200191505060405180910390f35b61087c600480360360408110156107ca57600080fd5b81019080803562ffffff169060200190929190803590602001906401000000008111156107f657600080fd5b82018360208201111561080857600080fd5b8035906020019184600183028401116401000000008311171561082a57600080fd5b91908080601f016020809104026020016040519081016040528093929190818152602001838380828437600081840152601f19601f82011690508083019250505050505050919291929050505061146d565b005b6108af6004803603602081101561089457600080fd5b81019080803562ffffff1690602001909291905050506114a9565b604051808262ffffff1662ffffff16815260200191505060405180910390f35b610900600480360360208110156108e557600080fd5b81019080803562ffffff1690602001909291905050506114e4565b6040518080602001828103825283818151815260200191508051906020019080838360005b83811015610940578082015181840152602081019050610925565b50505050905090810190601f16801561096d5780820380516001836020036101000a031916815260200191505b509250505060405180910390f35b6109ac6004803603602081101561099157600080fd5b81019080803562ffffff1690602001909291905050506115a9565b6040518080602001828103825283818151815260200191508051906020019080838360005b838110156109ec5780820151818401526020810190506109d1565b50505050905090810190601f168015610a195780820380516001836020036101000a031916815260200191505b509250505060405180910390f35b610a5860048036036020811015610a3d57600080fd5b81019080803562ffffff16906020019092919050505061166e565b6040518080602001828103825283818151815260200191508051906020019080838360005b83811015610a98578082015181840152602081019050610a7d565b50505050905090810190601f168015610ac55780820380516001836020036101000a031916815260200191505b509250505060405180910390f35b610b0460048036036020811015610ae957600080fd5b81019080803562ffffff169060200190929190505050611733565b6040518080602001828103825283818151815260200191508051906020019080838360005b83811015610b44578082015181840152602081019050610b29565b50505050905090810190601f168015610b715780820380516001836020036101000a031916815260200191505b509250505060405180910390f35b610c7160048036036080811015610b9557600080fd5b81019080803562ffffff169060200190929190803573ffffffffffffffffffffffffffffffffffffffff16906020019092919080359060200190640100000000811115610be157600080fd5b820183602082011115610bf357600080fd5b80359060200191846001830284011164010000000083111715610c1557600080fd5b91908080601f016020809104026020016040519081016040528093929190818152602001838380828437600081840152601f19601f820116905080830192505050505050509192919290803590602001909291905050506117f8565b005b610ca460048036036020811015610c8957600080fd5b81019080803562ffffff169060200190929190505050611a34565b604051808262ffffff1662ffffff16815260200191505060405180910390f35b610cf560048036036020811015610cda57600080fd5b81019080803562ffffff169060200190929190505050611a6f565b6040518082815260200191505060405180910390f35b610d3c60048036036020811015610d2157600080fd5b81019080803562ffffff169060200190929190505050611a9b565b6040518080602001828103825283818151815260200191508051906020019080838360005b83811015610d7c578082015181840152602081019050610d61565b50505050905090810190601f168015610da95780820380516001836020036101000a031916815260200191505b509250505060405180910390f35b610de860048036036020811015610dcd57600080fd5b81019080803562ffffff169060200190929190505050611b60565b6040518080602001828103825283818151815260200191508051906020019080838360005b83811015610e28578082015181840152602081019050610e0d565b50505050905090810190601f168015610e555780820380516001836020036101000a031916815260200191505b509250505060405180910390f35b610e9460048036036020811015610e7957600080fd5b81019080803562ffffff169060200190929190505050611c25565b604051808273ffffffffffffffffffffffffffffffffffffffff1673ffffffffffffffffffffffffffffffffffffffff16815260200191505060405180910390f35b610f1660048036036040811015610eec57600080fd5b81019080803562ffffff169060200190929190803562ffffff169060200190929190505050611c71565b6040518082815260200191505060405180910390f35b610f34611cbc565b6040518082815260200191505060405180910390f35b610f52611cc8565b6040518082815260200191505060405180910390f35b610fa860048036036040811015610f7e57600080fd5b81019080803562ffffff169060200190929190803562ffffff169060200190929190505050611cd0565b6040518080602001828103825283818151815260200191508051906020019080838360005b83811015610fe8578082015181840152602081019050610fcd565b50505050905090810190601f1680156110155780820380516001836020036101000a031916815260200191505b509250505060405180910390f35b6000808262ffffff168154811061103657fe5b90600052602060002090600d020160090160009054906101000a900460ff169050919050565b6000808362ffffff168154811061106f57fe5b90600052602060002090600d0201600c0160008362ffffff1662ffffff16815260200190815260200160002060000160009054906101000a900473ffffffffffffffffffffffffffffffffffffffff16905092915050565b6110cf611db4565b604051806101a0016040528060008054905062ffffff1681526020018b73ffffffffffffffffffffffffffffffffffffffff1681526020018a81526020018981526020018881526020018781526020018681526020018581526020018481526020018381526020016000600281111561114457fe5b815260200160008152602001600062ffffff16815250905060008190806001815401808255809150506001900390600052602060002090600d020160009091909190915060008201518160000160006101000a81548162ffffff021916908362ffffff16021790555060208201518160000160036101000a81548173ffffffffffffffffffffffffffffffffffffffff021916908373ffffffffffffffffffffffffffffffffffffffff1602179055506040820151816001019080519060200190611210929190611e47565b50606082015181600201908051906020019061122d929190611e47565b50608082015181600301908051906020019061124a929190611e47565b5060a0820151816004015560c0820151816005019080519060200190611271929190611e47565b5060e082015181600601908051906020019061128e929190611e47565b506101008201518160070190805190602001906112ac929190611e47565b506101208201518160080190805190602001906112ca929190611e47565b506101408201518160090160006101000a81548160ff021916908360028111156112f057fe5b021790555061016082015181600a015561018082015181600b0160006101000a81548162ffffff021916908362ffffff160217905550505050505050505050505050565b600260008262ffffff168154811061134857fe5b90600052602060002090600d020160090160006101000a81548160ff0219169083600281111561137457fe5b021790555050565b606060008262ffffff168154811061139057fe5b90600052602060002090600d02016008018054600181600116156101000203166002900480601f0160208091040260200160405190810160405280929190818152602001828054600181600116156101000203166002900480156114355780601f1061140a57610100808354040283529160200191611435565b820191906000526020600020905b81548152906001019060200180831161141857829003601f168201915b50505050509050919050565b6000808262ffffff168154811061145457fe5b90600052602060002090600d0201600401549050919050565b8060008362ffffff168154811061148057fe5b90600052602060002090600d020160020190805190602001906114a4929190611ec7565b505050565b6000808262ffffff16815481106114bc57fe5b90600052602060002090600d020160000160009054906101000a900462ffffff169050919050565b606060008262ffffff16815481106114f857fe5b90600052602060002090600d02016002018054600181600116156101000203166002900480601f01602080910402602001604051908101604052809291908181526020018280546001816001161561010002031660029004801561159d5780601f106115725761010080835404028352916020019161159d565b820191906000526020600020905b81548152906001019060200180831161158057829003601f168201915b50505050509050919050565b606060008262ffffff16815481106115bd57fe5b90600052602060002090600d02016006018054600181600116156101000203166002900480601f0160208091040260200160405190810160405280929190818152602001828054600181600116156101000203166002900480156116625780601f1061163757610100808354040283529160200191611662565b820191906000526020600020905b81548152906001019060200180831161164557829003601f168201915b50505050509050919050565b606060008262ffffff168154811061168257fe5b90600052602060002090600d02016001018054600181600116156101000203166002900480601f0160208091040260200160405190810160405280929190818152602001828054600181600116156101000203166002900480156117275780601f106116fc57610100808354040283529160200191611727565b820191906000526020600020905b81548152906001019060200180831161170a57829003601f168201915b50505050509050919050565b606060008262ffffff168154811061174757fe5b90600052602060002090600d02016005018054600181600116156101000203166002900480601f0160208091040260200160405190810160405280929190818152602001828054600181600116156101000203166002900480156117ec5780601f106117c1576101008083540402835291602001916117ec565b820191906000526020600020905b8154815290600101906020018083116117cf57829003601f168201915b50505050509050919050565b611800611f47565b60405180606001604052808573ffffffffffffffffffffffffffffffffffffffff1681526020018481526020018381525090508060008662ffffff168154811061184657fe5b90600052602060002090600d0201600c016000808862ffffff168154811061186a57fe5b90600052602060002090600d0201600b0160009054906101000a900462ffffff1662ffffff1662ffffff16815260200190815260200160002060008201518160000160006101000a81548173ffffffffffffffffffffffffffffffffffffffff021916908373ffffffffffffffffffffffffffffffffffffffff1602179055506020820151816001019080519060200190611906929190611e47565b5060408201518160020155905050600160008662ffffff168154811061192857fe5b90600052602060002090600d0201600b0160008282829054906101000a900462ffffff160192506101000a81548162ffffff021916908362ffffff1602179055508160008662ffffff168154811061197c57fe5b90600052602060002090600d0201600a016000828254019250508190555060008562ffffff16815481106119ac57fe5b90600052602060002090600d02016004015460008662ffffff16815481106119d057fe5b90600052602060002090600d0201600a015410611a2d57600160008662ffffff16815481106119fb57fe5b90600052602060002090600d020160090160006101000a81548160ff02191690836002811115611a2757fe5b02179055505b5050505050565b6000808262ffffff1681548110611a4757fe5b90600052602060002090600d0201600b0160009054906101000a900462ffffff169050919050565b6000808262ffffff1681548110611a8257fe5b90600052602060002090600d0201600a01549050919050565b606060008262ffffff1681548110611aaf57fe5b90600052602060002090600d02016007018054600181600116156101000203166002900480601f016020809104026020016040519081016040528092919081815260200182805460018160011615610100020316600290048015611b545780601f10611b2957610100808354040283529160200191611b54565b820191906000526020600020905b815481529060010190602001808311611b3757829003601f168201915b50505050509050919050565b606060008262ffffff1681548110611b7457fe5b90600052602060002090600d02016003018054600181600116156101000203166002900480601f016020809104026020016040519081016040528092919081815260200182805460018160011615610100020316600290048015611c195780601f10611bee57610100808354040283529160200191611c19565b820191906000526020600020905b815481529060010190602001808311611bfc57829003601f168201915b50505050509050919050565b6000808262ffffff1681548110611c3857fe5b90600052602060002090600d020160000160039054906101000a900473ffffffffffffffffffffffffffffffffffffffff169050919050565b6000808362ffffff1681548110611c8457fe5b90600052602060002090600d0201600c0160008362ffffff1662ffffff16815260200190815260200160002060020154905092915050565b60008080549050905090565b600047905090565b606060008362ffffff1681548110611ce457fe5b90600052602060002090600d0201600c0160008362ffffff1662ffffff1681526020019081526020016000206001018054600181600116156101000203166002900480601f016020809104026020016040519081016040528092919081815260200182805460018160011615610100020316600290048015611da75780601f10611d7c57610100808354040283529160200191611da7565b820191906000526020600020905b815481529060010190602001808311611d8a57829003601f168201915b5050505050905092915050565b604051806101a00160405280600062ffffff168152602001600073ffffffffffffffffffffffffffffffffffffffff168152602001606081526020016060815260200160608152602001600081526020016060815260200160608152602001606081526020016060815260200160006002811115611e2e57fe5b815260200160008152602001600062ffffff1681525090565b828054600181600116156101000203166002900490600052602060002090601f016020900481019282601f10611e8857805160ff1916838001178555611eb6565b82800160010185558215611eb6579182015b82811115611eb5578251825591602001919060010190611e9a565b5b509050611ec39190611f7e565b5090565b828054600181600116156101000203166002900490600052602060002090601f016020900481019282601f10611f0857805160ff1916838001178555611f36565b82800160010185558215611f36579182015b82811115611f35578251825591602001919060010190611f1a565b5b509050611f439190611f7e565b5090565b6040518060600160405280600073ffffffffffffffffffffffffffffffffffffffff16815260200160608152602001600081525090565b611fa091905b80821115611f9c576000816000905550600101611f84565b5090565b9056fea2646970667358221220e8e85685fca90f2d25b4f40089cbf542a52e9fddacc2f3ca64669b59e1184a5164736f6c63430006020033",
  "source": "pragma solidity ^0.6.1;\r\n\r\ncontract Crowdfunding\r\n{\r\n    enum CampaignStatus\r\n    {\r\n        Open,\r\n        GoalAchieved,\r\n        Closed\r\n    }\r\n    \r\n    Campaign[] ListOfCampaigns;\r\n\r\n    constructor() public\r\n    {\r\n        /*\r\n        CreateNewCampaign(0xC76b0A9320bFbE6e257CEf138dB145c885245fd3,\r\n                        \"Ngn hng tranh The Bank\",\r\n                        \"The Bank l ngn hng tranh tr em trc tuyn u tin v duy nht ti Vit Nam (cho n thi im hin ti). Chng ti tp hp, trng by v gii thiu tranh v ca cc em nh  khp mi ni, khng phn bit quc gia, dn tc hay hon cnh.\",\r\n                        \"http://tohebank.com/painting\",\r\n                        5000000,\r\n                        \"http://tohebank.com/admin//uploads/news/1480251170PWN_7398-3.jpg\",\r\n                        \"01/01/2020\",\r\n                        \"02/19/2020\",\r\n                        \"tu thien, tre em\");\r\n        CreateNewCampaign(0x7aE4C21E1a882fB168E5F88a4275FB969e692709,\r\n                        \"Student Grow - Cng ng h tr sinh vin UIT\",\r\n                        \"Cc chng trnh o to ca Trng c thit k p ng tt nhu cu hc tp, nghin cu a dng ca ngi hc v cung cp ngun nhn lc cht lng cao theo yu cu ca x hi v lnh vc CNTT&TT theo cc cp  t bc o to i hc n sau i hc (bao gm thc s v tin s). Trng c 17 chng trnh chnh quy o to bc k s v c nhn. Bn cnh , l mt trong 08 trng trng im v o to ngnh An ton Thng tin ca Vit Nam v p ng cc nhu cu c bit ca x hi, Trng c 07 chng trnh o to c bit (h chnh quy) cc ngnh: k s ti nng ngnh An ton Thng tin, chng trnh tin tin ngnh H thng Thng tin, c nhn ti nng ngnh Khoa hc My tnh v.v bc o to sau i hc, c 03 chng trnh o to trnh  thc s (ngnh khoa hc my tnh, cng ngh thng tin va h thng thng tin) v 02 chng trnh o to trnh  tin s (ngnh khoa hc my tnh v cng ngh thng tin). Thng qua cc chng trnh o to tin tin, CNTT c ng dng mnh m trong qu trnh t chc o to, thay i ni dung, phng php ging dy theo hng hin i v bm st cc yu cu ca thc tin, ng thi tng cng kh nng s dng ting Anh cho ngi hc. Tng s sinh vin, hc vin cao hc v nghin cu sinh hin nay ca Trng l hn 6.000.\",\r\n                        \"https://www.uit.edu.vn/\",\r\n                        35000000,\r\n                        \"https://scontent.fsgn5-5.fna.fbcdn.net/v/t31.0-8/13221300_1083224231719576_2757809742062362212_o.jpg?_nc_cat=100&_nc_ohc=UnNSxQd9Y00AQnrja3lUaSCVeYoJdsdL94iHBRwrghOPUmq7d1mjABcKA&_nc_ht=scontent.fsgn5-5.fna&oh=6f5472b4d447541e8ba4c7dbc87d70b5&oe=5E9D1174\",\r\n                        \"01/01/2020\",\r\n                        \"01/31/2020\",\r\n                        \" tng, sinh vin, d n cng ngh, UIT\");\r\n        CreateNewCampaign(0xceCE4a0DBC03CCBd3b68B30233e337c96A01C7E0,\r\n                        \"VNPhoto - Cuc thi chp nh p Vit Nam\",\r\n                        \"Hy cng gip  nhng nhip nh gia c c nhng tm hnh p nht v qu hng t nc Vit Nam.\",\r\n                        \"https://www.uit.edu.vn/\",\r\n                        2000000,\r\n                        \"https://images.unsplash.com/photo-1521019795854-14e15f600980?ixlib=rb-1.2.1&ixid=eyJhcHBfaWQiOjEyMDd9&auto=format\",\r\n                        \"01/01/2020\",\r\n                        \"01/21/2020\",\r\n                        \"t nc, qu hng, nh ngh thut\");\r\n        CreateNewCampaign(0x7aE4C21E1a882fB168E5F88a4275FB969e692709,\r\n                        \"Chin dch Tt sum vy\",\r\n                        \"Cng chung tay ng h cc tr em ngho  cc em c th khm ph ngy Tt truyn thng v nhng hot ng th v trong ngy l ny.\",\r\n                        \"https://tuoitre.vn/hoat-dong-thien-nguyen-tet-tre-em-tai-le-hoi-tet-viet-2020-20200105091519287.htm\",\r\n                        7000000,\r\n                        \"https://images.pexels.com/photos/1212805/pexels-photo-1212805.jpeg?auto=compress&cs=tinysrgb&dpr=2&h=650&w=940\",\r\n                        \"01/17/2020\",\r\n                        \"02/15/2020\",\r\n                        \"Tt, l hi, tr em\");\r\n        CreateNewCampaign(0xC76b0A9320bFbE6e257CEf138dB145c885245fd3,\r\n                        \"Cng ng Sinh vin Thin nguyn\",\r\n                        \"Cng chung tay gip cc bn sinh vin tr tham gia cc hot ng thin nguyn  nu nhng ba n ngon cho nhng bnh nhn ang gp kh khn ti bnh vin Qun Th c.\",\r\n                        \"https://www.facebook.com/groups/965064530234671/\",\r\n                        3000000,\r\n                        \"https://scontent.fsgn5-7.fna.fbcdn.net/v/t1.0-9/54415239_1152865048224339_2867883834022559744_o.jpg?_nc_cat=110&_nc_ohc=P5GhaULe4fcAX9a5pK0&_nc_ht=scontent.fsgn5-7.fna&oh=1a7afd08b773f184231f0a76e812743c&oe=5EC6C18B\",\r\n                        \"01/29/2020\",\r\n                        \"0/29/2020\",\r\n                        \"t thin, sinh vin, bnh nhn\");\r\n                        */\r\n    }\r\n\r\n    struct Campaign\r\n    {\r\n        uint24 ID;\r\n        address payable owner;\r\n        string name;\r\n        string description;\r\n        string link;\r\n        uint goal;\r\n        string imageLink;\r\n        string startDate;\r\n        string endDate;\r\n        string tags;\r\n        CampaignStatus status;\r\n        uint moneyCollected;\r\n        uint24 totalContributors;\r\n        mapping (uint24 => Contributor) contributors;\r\n    }\r\n\r\n    struct Contributor\r\n    {\r\n        address payable contributor;\r\n        string date;\r\n        uint amount;\r\n    }\r\n    \r\n    function CreateNewCampaign\r\n    (\r\n        address payable _owner,\r\n        string memory _name,\r\n        string memory _description,\r\n        string memory _link,\r\n        uint _goal,\r\n        string memory _imageLink,\r\n        string memory _startDate,\r\n        string memory _endDate,\r\n        string memory _tags\r\n    ) public\r\n    {\r\n        Campaign memory newCampaign = Campaign({\r\n                                                ID: uint24(ListOfCampaigns.length),\r\n                                                owner: _owner,\r\n                                                name: _name,\r\n                                                description: _description,\r\n                                                link: _link,\r\n                                                goal: _goal,\r\n                                                imageLink: _imageLink,\r\n                                                startDate: _startDate,\r\n                                                endDate: _endDate,\r\n                                                tags: _tags,\r\n                                                status: CampaignStatus.Open,\r\n                                                moneyCollected: 0,\r\n                                                totalContributors: 0\r\n                                            });\r\n\r\n        ListOfCampaigns.push(newCampaign);\r\n    }\r\n    \r\n    function ContributeToCampaign\r\n    (\r\n        uint24 _campaignID,\r\n        address payable _contributor,\r\n        string memory _date,\r\n        uint _amount\r\n    ) public\r\n    {\r\n        Contributor memory newContributor = Contributor({\r\n                                                            contributor: _contributor,\r\n                                                            date: _date,\r\n                                                            amount: _amount\r\n                                                        });\r\n                                                        \r\n        // add a new contribution record to the project's contributor list\r\n        ListOfCampaigns[_campaignID].contributors[uint24(ListOfCampaigns[_campaignID].totalContributors)] = newContributor;\r\n        ListOfCampaigns[_campaignID].totalContributors += 1;\r\n        \r\n        // Update the total money funded\r\n        ListOfCampaigns[_campaignID].moneyCollected += _amount;\r\n        if (ListOfCampaigns[_campaignID].moneyCollected >= ListOfCampaigns[_campaignID].goal)\r\n        {\r\n            ListOfCampaigns[_campaignID].status = CampaignStatus.GoalAchieved;\r\n        }\r\n    }\r\n    \r\n    function GetContractBalance() public view returns(uint) {\r\n        return address(this).balance;\r\n    }\r\n\r\n    function CloseCampaign(uint24 _campaignID) public\r\n    {\r\n        ListOfCampaigns[_campaignID].status = CampaignStatus.Closed;\r\n    }\r\n    \r\n    function GetNumberOfCampaigns() public view returns (uint)\r\n    {\r\n        return ListOfCampaigns.length;\r\n    }\r\n    \r\n    function GetCampaignOwner(uint24 _campaignID) public view returns (address)\r\n    {\r\n        return ListOfCampaigns[_campaignID].owner;\r\n    }\r\n    \r\n    function GetCampaignID(uint24 _campaignID) public view returns (uint24)\r\n    {\r\n        return ListOfCampaigns[_campaignID].ID;\r\n    }\r\n    \r\n    function GetCampaignImageLink(uint24 _campaignID) public view returns (string memory)\r\n    {\r\n        return ListOfCampaigns[_campaignID].imageLink;\r\n    }\r\n    \r\n    function GetCampaignName(uint24 _campaignID) public view returns (string memory)\r\n    {\r\n        return ListOfCampaigns[_campaignID].name;\r\n    }\r\n    \r\n    function GetCampaignDescription(uint24 _campaignID) public view returns (string memory)\r\n    {\r\n        return ListOfCampaigns[_campaignID].description;\r\n    }\r\n    \r\n    function SetCampaignDescription(uint24 _campaignID, string memory _description) public\r\n    {\r\n        ListOfCampaigns[_campaignID].description = _description;\r\n    }\r\n    \r\n    function GetCampaignLink(uint24 _campaignID) public view returns (string memory)\r\n    {\r\n        return ListOfCampaigns[_campaignID].link;\r\n    }\r\n    \r\n    function GetCampaignStartDate(uint24 _campaignID) public view returns (string memory)\r\n    {\r\n        return ListOfCampaigns[_campaignID].startDate;\r\n    }\r\n    \r\n    function GetCampaignEndDate(uint24 _campaignID) public view returns (string memory)\r\n    {\r\n        return ListOfCampaigns[_campaignID].endDate;\r\n    }\r\n    \r\n    function GetCampaignTags(uint24 _campaignID) public view returns (string memory)\r\n    {\r\n        return ListOfCampaigns[_campaignID].tags;\r\n    }\r\n    \r\n    function GetCampaignStatus(uint24 _campaignID) public view returns (CampaignStatus)\r\n    {\r\n        return ListOfCampaigns[_campaignID].status;\r\n    }\r\n    \r\n    function GetCampaignGoal(uint24 _campaignID) public view returns (uint)\r\n    {\r\n        return ListOfCampaigns[_campaignID].goal;\r\n    }\r\n    \r\n    function GetCampaignMoneyCollected(uint24 _campaignID) public view returns (uint)\r\n    {\r\n        return ListOfCampaigns[_campaignID].moneyCollected;\r\n    }\r\n    \r\n    function GetCampaignTotalContributors(uint24 _campaignID) public view returns (uint24)\r\n    {\r\n        return ListOfCampaigns[_campaignID].totalContributors;\r\n    }\r\n    \r\n    function GetCampaignContributor(uint24 _campaignID, uint24 _index) public view returns (address)\r\n    {\r\n        return ListOfCampaigns[_campaignID].contributors[_index].contributor;\r\n    }\r\n    \r\n    function GetCampaignContributionDate(uint24 _campaignID, uint24 _index) public view returns (string memory)\r\n    {\r\n        return ListOfCampaigns[_campaignID].contributors[_index].date;\r\n    }\r\n    \r\n    function GetCampaignContributionAmount(uint24 _campaignID, uint24 _index) public view returns (uint)\r\n    {\r\n        return ListOfCampaigns[_campaignID].contributors[_index].amount;\r\n    }\r\n}",
  "sourcePath": "D:/Project/UIT-graduation-thesis-Crowdfunding-project/contracts/Crowdfunding.sol",
  "compiler": {
    "name": "solc",
    "version": "0.6.2+commit.bacdbe57.Emscripten.clang"
  },
  "schemaVersion": "3.0.22",
  "updatedAt": "2020-02-03T01:43:50.282Z",
  "networkType": "ethereum",
  "devdoc": {
    "methods": {}
  },
  "userdoc": {
    "methods": {}
  }
}